:100000000C946D000C9495000C9495000C94950044
:100010000C94FE090C9494090C9495000C94950092
:100020000C9495000C9495000C9495000C949500FC
:100030000C9495000C9495000C9495000C949500EC
:100040000C94CB0E0C9495000C94780D0C94520DDE
:100050000C9495000C9495000C9495000C949500CC
:100060000C9408020C949500556E6B6E6F776E20A1
:100070006572726F7220617420616464726573735B
:10008000000D0A003A2000000000080002010000F4
:10009000030407000000000000000000000000242E
:1000A0000027002A0000000000250028002B000483
:1000B000040404040404040202020202020303030F
:1000C0000303030102040810204080010204081009
:1000D0002001020408102000371B11241FBECFEF9F
:1000E000D8E0DEBFCDBF15E0A0E0B1E0EEE0FAE47D
:1000F00002C005900D92AE32B107D9F727E0AEE20B
:10010000B5E001C01D92AA38B207E1F710E0CDE6D4
:10011000D0E004C02197FE010E944720CC36D107D1
:10012000C9F70E942F110C9405250C940000089526
:10013000089585ED8093BC008091BC0084FDFCCFC8
:1001400010924706089540915005262F30E0240F65
:10015000311D21323105DCF4209147062430C9F4E9
:10016000FC0180E090E0861758F430915005219111
:10017000DC01A25DBA4FA30FB11D2C930196F3CF02
:1001800080915005680F6093500580E0089581E0EC
:10019000089582E00895089581E090E030917A0515
:1001A00020917905321710F480E090E091958195C7
:1001B0009109089580917A0590917905891730F415
:1001C0008F5F80937A0580E090E008958FEF9FEF36
:1001D00008958091790590E020917A05821B91091C
:1001E0000895CF92DF92EF92FF920F931F93CF93D8
:1001F000DF937C01262F972F8A0180914806882360
:1002000091F0C62FD72F6E01C40ED51ECC15DD057B
:1002100071F06991D701ED91FC910190F081E02D91
:10022000C7010995F3CF642F822F0E94A300C80154
:10023000DF91CF911F910F91FF90EF90DF90CF90C2
:100240000895CF93DF931F92CDB7DEB769832091D6
:1002500048062223D1F020916B06203240F021E0A5
:1002600030E0FC013383228380E090E015C0809170
:100270004906E82FF0E0E65BF94F998190838F5FA4
:100280008093490680936B0605C061E0CE0101961C
:100290000E94A30081E090E00F90DF91CF9108953C
:1002A000089580E090E008950F931F93CF93DF931C
:1002B000EC01423018F08C8188608C834F83688712
:1002C000222329F0413019F48C8184608C8364E608
:1002D00070E080E090E00E94910E6C8164FD31C07E
:1002E000E881F9810684F785E02D42E063E0CE01E4
:1002F00009958BE496E40197F1F7E881F98106848A
:10030000F785E02D42E063E0CE01099503E512E0B8
:10031000C8010197F1F7E881F9810684F785E02D9E
:1003200042E063E0CE010995C8010197F1F7E88149
:10033000F9810684F785E02D42E062E0CE0109955F
:1003400017C06062CE010E94150F8BE496E40197FE
:10035000F1F76C816062CE010E94150F03E512E097
:10036000C8010197F1F76C816062CE010E94150F00
:10037000C8010197F1F76C816062CE010E94150FF0
:100380008BEE90E00197F1F784E08D836CE0CE0175
:100390000E94150F61E0CE010E94150F8BE39FE1D3
:1003A0000197F1F782E08E8366E0CE010E94150F7F
:1003B000E881F9810484F585E02D6FEFCE01DF91AE
:1003C000CF911F910F910994FC0123812223B9F051
:1003D0009181909569236083828191E09093480692
:1003E00080936A061092490610926B0689E097E0A6
:1003F0000E9421010E943C0F282F30E002C020E023
:1004000030E081E090E0232B11F080E090E008954F
:100410001F920F920FB60F9211242F933F934F9379
:100420005F936F937F938F939F93AF93BF93EF935C
:10043000FF938091B900887F803609F49CC068F5ED
:10044000883209F45BC090F4803109F454C038F468
:10045000882309F4F6C0883009F44DC0F6C088310D
:1004600009F44CC0803209F45DC0EFC0803409F457
:1004700068C048F4803309F455C0883309F0E5C0FA
:1004800080934506D8C0803509F44FC0883509F4FB
:100490005DC0883409F0D9C0D6C0883909F4C7C016
:1004A000A8F4883709F467C038F4883609F463C0C3
:1004B000803709F460C0C9C0883809F4B8C08039F1
:1004C00009F45FC0803809F0C0C05BC0803B09F40C
:1004D00086C038F4803A09F466C0883A09F47FC0CF
:1004E000B4C0803C09F4A7C0883C09F4A4C0883B90
:1004F00009F48AC0AAC08091220610C090914406D7
:1005000080914306981770F5E091440681E08E0FC4
:1005100080934406F0E0ED5DF94F80818093BB004D
:1005200085EC86C0809345068EC0E091440681E04C
:100530008E0F809344068091BB00F0E0ED5DF94F93
:10054000808390914406809143066EC0E0914406FA
:1005500081E08E0F809344068091BB00F0E0ED5D5A
:10056000F94F80838091460681116DC081E08093B0
:10057000210684EA61C083E08093470610927405E7
:10058000CFCF80917405803208F051C0E09174059E
:1005900081E08E0F809374058091BB00F0E0EC5AEF
:1005A000FA4F8083BDCF85EC8093BC001092470644
:1005B00080917405803230F4E0917405F0E0EC5ADB
:1005C000FA4F10826091740570E0E0915205F0914D
:1005D000530584E595E009951092740536C084E0D2
:1005E000809347061092510510925005E0914E05F8
:1005F000F0914F05099580915005811105C081E06A
:100600008093500510922E05E091510581E08E0FE8
:1006100080935105F0E0E25DFA4F80818093BB004A
:100620009091510580915005981708F479CF85E88D
:100630008093BC000AC085EC8093BC0010924706F2
:1006400004C0109245060E949900FF91EF91BF915E
:10065000AF919F918F917F916F915F914F913F915A
:100660002F910F900FBE0F901F9018951092470674
:1006700081E0809346061092210661E082E10E94AB
:10068000AA0D61E083E10E94AA0DE9EBF0E0808110
:100690008E7F808380818D7F808388E48093B80003
:1006A00085E48093BC0008952F923F924F925F9211
:1006B0006F927F928F929F92AF92BF92CF92DF9272
:1006C000EF92FF920F931F93CF93DF9300D0CDB79C
:1006D000DEB78C0149832A83660F771FF801EA5A37
:1006E000FF4FE080F180EE0CFF1CF801CF01801B72
:1006F000910B8E159F0514F41192F8CF8981F801A2
:10070000E60FF71F81838A818083580184E5A80E54
:10071000B11C60E0F50180810E94AA0DE00EF11E7F
:100720004801F2E58F0E911C380180E5680E711CBE
:10073000C701801B910B1816190624F5F701C2900A
:100740007F01F4013080F301208087E0482E512C96
:10075000D12CB601042C02C0759567950A94E2F776
:1007600061707727822D0E94AA0D61E0832D0E947F
:10077000AA0D60E0832D0E94AA0DF1E04F1A5108E6
:1007800040F7D6CF61E0F50180810F900F90DF91A7
:10079000CF911F910F91FF90EF90DF90CF90BF907E
:1007A000AF909F908F907F906F905F904F903F9011
:1007B0002F900C94AA0DCF92DF92EF92FF920F939D
:1007C0001F93CF93DF938C017B016B0183E0CC0CF3
:1007D000DD1C8A95E1F7C1E0D0E0FE01EC0DFD1DC6
:1007E000E00FF11F178620E04C2FB701C8010E94CF
:1007F00054032196C930D10581F7DF91CF911F9124
:100800000F91FF90EF90DF90CF900895CF92DF92FD
:10081000EF92FF920F931F93CF93DF93CDB7DEB785
:1008200028970FB6F894DEBF0FBECDBF8DEAE82E35
:1008300085E0F82E84EA92E0F7019183808387EBCC
:1008400092E0938382838AEC92E0958384838DED9A
:1008500092E09783868380EF92E09187808783E0A0
:1008600093E09387828786E193E09587848789E286
:1008700093E0978786878CE393E0918B808B8FE45E
:1008800093E0938B828B82E693E0958B848B85E754
:1008900093E0978B868B8EE594E0918F808F938F7A
:1008A000828F958F848F6AE773E084EA92E00E94DA
:1008B0005D226DE873E087EB92E00E945D2260EAC2
:1008C00073E08AEC92E00E945D2263EB73E0F70133
:1008D000868197810E945D2266EC73E0F701808536
:1008E00091850E945D2269ED73E0F7018285938511
:1008F0000E945D226CEE73E0F701848595850E946D
:100900005D226FEF73E0F701868597850E945D2277
:1009100062E174E0F701808991890E945D2265E2BD
:1009200074E0F701828993890E945D2268E374E094
:10093000F701848995890E945D226091A1057091DB
:10094000A2058091A3059091A4052AE08E010F5F76
:100950001F4FA8010E94B51CF80101900020E9F783
:100960003197AF01401B510B92E1C92ED12CC6012A
:10097000841B950BF70120813181B801820F931FF1
:100980000E94492260919D0570919E0580919F056E
:100990009091A0052AE0A8010E94B51CF8010190E1
:1009A0000020E9F73197AF01401B510BC601841BB2
:1009B000950BF70122813381B801820F931F0E94AA
:1009C00049226091990570919A0580919B059091BB
:1009D0009C052AE0A8010E94B51CF80101900020A6
:1009E000E9F73197AF01401B510BC601841B950BF2
:1009F000F70124813581B801820F931F0E9449229B
:100A00006091950570919605809197059091980554
:100A10002AE0A8010E94B51CF80101900020E9F726
:100A20003197AF01401B510BC601841B950BF70199
:100A300026813781B801820F931F0E9449224AE024
:100A4000B80180919305909194050E94AA1CF80129
:100A500001900020E9F73197AF01401B510BC6010F
:100A6000841B950BF70120853185B801820F931FF8
:100A70000E94492260918F057091900580919105A7
:100A8000909192052AE0A8010E94B51CF8010190FE
:100A90000020E9F73197AF01401B510BC601841BC1
:100AA000950BF70122853385B801820F931F0E94B1
:100AB00049224AE0B80180918D0590918E050E94EF
:100AC000AA1CF80101900020E9F73197AF01401B03
:100AD000510BC601841B950BF70124853585B801A0
:100AE000820F931F0E9449224AE0B80180918B0532
:100AF00090918C050E94AA1CF80101900020E9F752
:100B00003197AF01401B510BC601841B950BF701B8
:100B100026853785B801820F931F0E944922609174
:100B200075057091760580917705909178052AE09A
:100B3000A8010E94B51CF80101900020E9F7319747
:100B4000AF01401B510BC601841B950BF701208997
:100B50003189B801820F931F0E9449226091A90533
:100B60007091AA058091AB059091AC052AE0A8018F
:100B70000E94B51CF80101900020E9F73197AF0100
:100B8000401B510BC601841B950BF7012289338949
:100B9000B801820F931F0E9449224AE0B801809158
:100BA000CB059091CC050E94AA1CF8010190002071
:100BB000E9F73197AF01401B510BC41AD50AF70171
:100BC00084899589B8018C0D9D1D0E944922289623
:100BD0000FB6F894DEBF0FBECDBFDF91CF911F914E
:100BE0000F91FF90EF90DF90CF9008958BE494E009
:100BF0000C946310CF93DF93CDB7DEB764970FB635
:100C0000F894DEBF0FBECDBF8091D1059091D20583
:100C1000009781F58091CB059091CC054AE0BE010B
:100C2000655F7F4F01960E94AA1C60E08FE00E94E2
:100C300075108AE594E00E94631060E08FE00E94E6
:100C40007510CE010B960E9463108091CB05909198
:100C5000CC054AE0BE016F5F7F4F01970E94AA1C3E
:100C600061E08FE00E9475108AE594E00E946310B5
:100C700061E016C00197D9F48091CB059091CC0525
:100C80004AE0BE016F5F7F4F01970E94AA1C60E09F
:100C90008FE00E9475108AE594E00E94631060E086
:100CA0008FE00E947510CE0101960E94631064E0EF
:100CB00080E00E9475100E94F60564E080E00E94CA
:100CC00075104AE0BE016F5F7F4F8091CB05909118
:100CD000CC050E94AA1C80E694E00E946310CE011D
:100CE00001960E94631064960FB6F894DEBF0FBEA3
:100CF000CDBFDF91CF910895CF93DF93CDB7DEB70E
:100D000064970FB6F894DEBF0FBECDBF8091D105BA
:100D10009091D205009781F58091CD059091CE05F7
:100D20004AE0BE01655F7F4F05960E94AA1C60E005
:100D30008FE00E9475108AE594E00E94631060E0E5
:100D40008FE00E947510CE010B960E946310809177
:100D5000CD059091CE054AE0BE016F5F7F4F0597AC
:100D60000E94AA1C61E08FE00E9475108AE594E061
:100D70000E94631061E016C00197D9F48091CD05FF
:100D80009091CE054AE0BE016F5F7F4F05970E94AC
:100D9000AA1C60E08FE00E9475108AE594E00E9432
:100DA000631060E08FE00E947510CE0101960E94F2
:100DB000631064E080E00E9475100E94F60564E014
:100DC00080E00E9475104AE0BE016F5F7F4F809106
:100DD000CD059091CE050E94AA1C87E694E00E9462
:100DE0006310CE0101960E94631064960FB6F894CA
:100DF000DEBF0FBECDBFDF91CF91089540E050E040
:100E0000BA0180E090E00E94401E40E050E0BA014C
:100E100084E090E00E94401E40E050E0BA0188E08B
:100E200090E00E94401E60E070E082E190E00E944D
:100E3000481E60E070E086E190E00E94481E60E09D
:100E400070E088E190E00E94481E60E070E082E27D
:100E500090E00E94481E60E070E084E290E00E9412
:100E6000481E409175055091760560917705709107
:100E700078054F5F5F4F6F4F7F4F409375055093DD
:100E80007605609377057093780584E390E00E947F
:100E9000401E44EF51E060E070E082E490E00E9488
:100EA000401E40E050E0BA0188E390E00C94401E00
:100EB00010927B0510927C0585E090E0A0E0B0E008
:100EC0008093CD059093CE05A093CF05B093D00528
:100ED00010927D0510927E0510927F05109280057C
:100EE0001092880510928705109281051092820554
:100EF0001092830510928405109286051092850544
:100F000010928A051092890508950F931F93CF932D
:100F1000DF938B01EA01BC0189E00E94320EB80127
:100F20008AE00E94320EBE0183E0DF91CF911F91D3
:100F30000F910C94320E40E050E060E070E080E0F1
:100F400090E00E94850786E08093020108954FEFAC
:100F500050E060E070E080E090E00E94850783E070
:100F6000809302010895CF92DF92EF92FF920F9348
:100F70001F93CF930E94A7078FE1C82ED12CE12C9D
:100F8000F12C04ED14E0C1E0C601B8010E941F205D
:100F9000892B91F180916901811127C085E0C80EEC
:100FA000D11CE11CF11C85E7C81683E1D806E104D9
:100FB000F10451F70E949B076AE070E080E090E046
:100FC0000E94990F6AE070E081E090E00E94990F22
:100FD0006AE070E082E090E0CF911F910F91FF9066
:100FE000EF90DF90CF900C94990F41E050E0C70153
:100FF000B6010E94AD0FD2CF809102018130A1F4E1
:1010000061E070E080E090E00E94990F61E070E0A4
:1010100081E090E00E94990F61E070E082E090E052
:101020000E94990F0E94A70780910201833009F066
:10103000B1CF6AE070E080E090E00E94990F6AE032
:1010400070E081E090E00E94990F6AE070E082E039
:1010500090E00E94990F40E050E060E070E08FEF78
:1010600090E00E948507C093020194CF0F931F93D5
:10107000CF93DF9300D000D000D0CDB7DEB7209162
:10108000D3058091A5059091A605A091A705B091E3
:10109000A80522FF1AC00091A9051091AA05209168
:1010A000AB053091AC05AC01BD01401B510B620B8F
:1010B000730B8A019B0177FF0AC03095209510952C
:1010C00001951F4F2F4F3F4F02C001E010E021E07C
:1010D0002093480620E120936A0610924906109258
:1010E0006B06BC01CD017727882799270E941D0F29
:1010F0006091A60570E080E090E00E941D0F609175
:10110000A70570E080E090E00E941D0F8091A5058A
:101110009091A605A091A705B091A8056B2F772700
:101120008827992789E097E00E9421014091A50531
:101130005091A6056091A7057091A8058091A90519
:101140009091AA05A091AB05B091AC0584179507C5
:10115000A607B7071CF4119501951109602F89E0C6
:1011600097E00E942101612F89E097E00E94210110
:101170008091A9059091AA05A091AB05B091AC050D
:10118000BC01CD017727882799270E941D0F609108
:10119000AA0570E080E090E00E941D0F6091AB0511
:1011A00070E080E090E00E941D0F8091A905909171
:1011B000AA05A091AB05B091AC056B2F77278827C6
:1011C000992789E097E00E9421010E943C0F84301A
:1011D000A1F41A8219821C821B821E821D8268E67B
:1011E00070E0CE0101960E94EF0CCE0101960E94A4
:1011F0002A0F89819A810E94E22026960FB6F894E0
:10120000DEBF0FBECDBFDF91CF911F910F9108952B
:101210000E94A70780916901882341F02B9A64E618
:1012200070E080E090E00E94910E2B980E949B0756
:101230004091A1055091A2056091A3057091A4056C
:1012400080E090E00E94401E40919D0550919E05D7
:1012500060919F057091A00584E090E00E94401E7F
:101260004091990550919A0560919B0570919C055C
:1012700088E090E00E94401E60919505709196056F
:1012800082E190E00E94481E609193057091940560
:1012900086E190E00E94481E60918F057091900554
:1012A00088E190E00E94481E60918D0570918E0546
:1012B00082E290E00E94481E60918B0570918C053F
:1012C00084E290E00E94481E409175055091760599
:1012D00060917705709178054F5F5F4F6F4F7F4F3B
:1012E0004093750550937605609377057093780564
:1012F00084E390E00E94401E4091A9055091AA0508
:101300006091AB057091AC0582E490E00E94401EB4
:101310004091CB055091CC05052E000C660B770B48
:1013200086E490E00C94401E1F920F920FB60F922D
:1013300011248F939F9389B190910101892799B1CD
:1013400090930101909101019E7F909301019091F2
:1013500001019D7F9093010190910101977F9093EE
:101360000101909101019F7E9093010190910101F3
:101370009F7D90930101909101019F7B90930101CA
:10138000909101019F779093010182FF30C080917D
:10139000010182FF08C08FE99FE00197F1F700C0CB
:1013A000000089B124C08FE99FE00197F1F700C0E8
:1013B00000004A991CC08091D30581FF08C080912C
:1013C000D30581608093D3051092D40510C080911D
:1013D000D30580FF0CC08091D30582FF05C08091AA
:1013E000D3058B7F8093D30581E08093D4059F91B3
:1013F0008F910F900FBE0F901F9018951F920F9214
:101400000FB60F9211248F939F93EF93FF9386B1A2
:1014100090910001892796B190930001909100016D
:101420009E7F90930001909100019F7E9093000118
:10143000909100019F7D90930001909100019F7B0E
:101440009093000181FF17C09091000191FF08C0A7
:10145000EFE9FFE03197F1F700C0000096B10BC053
:10146000EFE9FFE03197F1F700C00000319903C0C8
:1014700094E09093D40582FF17C09091000192FFF1
:1014800008C0EFE9FFE03197F1F700C0000096B126
:101490000BC0EFE9FFE03197F1F700C0000032998F
:1014A00003C095E09093D40583FF17C0809100019D
:1014B00083FF08C08FE99FE00197F1F700C00000AB
:1014C00086B10BC0EFE9FFE03197F1F700C00000F3
:1014D000339903C083E08093D405FF91EF919F91EE
:1014E0008F910F900FBE0F901F90189540E050E025
:1014F0006FEF70E080E090E00E94850782E08093CB
:10150000020180916901882361F02B9A8091D305B3
:1015100082FD06C064E670E080E090E00E94910EDB
:101520002B980C949B070F931F93CF93DF9300D0BE
:1015300000D000D0CDB7DEB70DEA15E0F80161911B
:1015400071918F01CE0101960E94170DCE01019677
:101550000E942A0F89819A810E94E220F5E0033CD3
:101560001F0761F726960FB6F894DEBF0FBECDBFFA
:10157000DF91CF911F910F910895CF92DF92EF925B
:10158000FF920F931F93CF93DF936C017A018B012E
:10159000C0E0D0E0CE15DF0589F0D8016D918D0156
:1015A000D601ED91FC910190F081E02DC6010995E5
:1015B000892B11F47E0102C02196ECCFC701DF9187
:1015C000CF911F910F91FF90EF90DF90CF900895F2
:1015D000FC01538D448D252F30E0842F90E0821B39
:1015E000930B541710F0CF96089501970895FC01BE
:1015F000918D828D981761F0828DDF01A80FB11D4A
:101600005D968C91928D9F5F9F73928F90E008956D
:101610008FEF9FEF0895FC01918D828D981731F027
:10162000828DE80FF11D858D90E008958FEF9FEF7B
:101630000895FC01918D228D892F90E0805C9F4F51
:10164000821B91098F73992708958CE696E00E947A
:10165000190B21E0892B09F420E0822F0895FC0169
:10166000848DDF01A80FB11DA35ABF4F2C91848D2B
:1016700090E001968F739927848FA689B7892C9360
:10168000A089B1898C9180648C93938D848D9813FB
:1016900006C00288F389E02D80818F7D80830895C4
:1016A000EF92FF920F931F93CF93DF93EC0181E0B2
:1016B000888F9B8D8C8D981305C0E889F98980816E
:1016C00085FD24C0F62E0B8D10E00F5F1F4F0F73AA
:1016D0001127E02E8C8DE8120CC00FB607FCFACF54
:1016E000E889F989808185FFF5CFCE010E942F0B13
:1016F000F1CF8B8DFE01E80FF11DE35AFF4FF08211
:101700000B8FEA89FB898081806207C0EE89FF899F
:101710006083E889F98980818064808381E090E03A
:10172000DF91CF911F910F91FF90EF900895CF938C
:10173000DF93EC01888D8823C9F0EA89FB898081D9
:1017400085FD05C0A889B9898C9186FD0FC00FB6AB
:1017500007FCF5CF808185FFF2CFA889B9898C91EC
:1017600085FFEDCFCE010E942F0BE7CFDF91CF9108
:10177000089580E090E0892B29F00E94250B8111CB
:101780000C94000008953FB7F8948091F70590916C
:10179000F805A091F905B091FA0526B5A89B05C0FA
:1017A0002F3F19F00196A11DB11D3FBFBA2FA92FE0
:1017B000982F8827820F911DA11DB11DBC01CD015D
:1017C00042E0660F771F881F991F4A95D1F7089549
:1017D00021E001C0220F6A95EAF7DC011C962C93E8
:1017E0001C971A965C934E931997ED91FC91048483
:1017F000F585E02D60E00994DC01ED91FC91068413
:10180000F785E02D41E0099581E090E008950E9480
:1018100044220F931F93CF93DF93EC01888199812A
:10182000009729F02A813B812617370788F48B011E
:101830006F5F7F4F0E947A21009761F099838883C0
:101840001B830A832C813D81232B11F4FC01108220
:1018500081E001C080E0DF91CF911F910F91089549
:10186000CF93DF93EC0188819981009711F00E945A
:10187000E220198218821D821C821B821A82DF914B
:10188000CF910895EF92FF920F931F93CF938C0106
:10189000FC01759684E0C0E060FF02C09081C92B16
:1018A0006695815031968111F7CF413011F4F801DE
:1018B0004489F8018585C82BC42B7801FEE0EF0E22
:1018C000F11CF80162896C2BC7010E94E401F80148
:1018D000628960956C23C701CF911F910F91FF9092
:1018E000EF900C94E4010F931F93CF93DF93062F97
:1018F0000F70423019F440E0602F10C0142F262FD3
:10190000EC0130E0B90184E0759567958A95E1F7BF
:10191000CE010E94420C412F602FCE01DF91CF916A
:101920001F910F910C94420CFC0184858823A9F02F
:10193000218532852115310519F4611106C007C0D2
:101940002130310521F4611102C0858701C015865F
:101950006585CF010E960C94E4010895FF920F93D4
:101960001F93CF93DF93EC01162F042FF22E8B855C
:10197000888B10927A051092790510924906109280
:101980006B060E943603888991E090934806809305
:101990006A061092490610926B060E943C0F91E075
:1019A000811190E0998B992329F089E097E00E94BA
:1019B000DA008E878989882339F01F861C8260E0CF
:1019C000CE010E960E94E4012F2D402F612FCE01F3
:1019D000DF91CF911F910F91FF900C945401EF92E2
:1019E000FF920F931F93CF93DF93EC018B0161154F
:1019F000710551F0CB010E94A11C7C01BC01CE01FC
:101A00000E94090C811104C0CE010E94300C07C055
:101A1000FD82EC82B801888199810E949A1CCE01D6
:101A2000DF91CF911F910F91FF90EF900895EF926A
:101A3000FF920F931F93CF93DF93EC0119821882CB
:101A40001B821A821D821C826115710521F18B0196
:101A5000FB0101900020E9F731977F01E61AF70AB0
:101A6000B7010E94090C811109C0CE01DF91CF910D
:101A70001F910F91FF90EF900C94300CFD82EC823F
:101A8000B80188819981DF91CF911F910F91FF90CB
:101A9000EF900C945D22DF91CF911F910F91FF90F9
:101AA000EF9008951F920F920FB60F9211242F936B
:101AB0003F934F935F936F937F938F939F93AF93D6
:101AC000BF93EF93FF938CE696E00E942F0BFF915C
:101AD000EF91BF91AF919F918F917F916F915F91A6
:101AE0004F913F912F910F900FBE0F901F9018951F
:101AF0001F920F920FB60F9211242F938F939F93E3
:101B0000EF93FF93E0917C06F0917D068081E09158
:101B10008206F091830682FD12C090818091850635
:101B20008F5F8F7320918606821751F0E0918506B2
:101B3000F0E0E459F94F958F8093850601C08081CC
:101B4000FF91EF919F918F912F910F900FBE0F906A
:101B50001F90189590E0FC01E957FF4F3491FC016C
:101B6000ED53FF4F2491FC01E155FF4FE491EE232B
:101B700009F43BC0332339F1333091F038F431307C
:101B8000A9F0323001F584B58F7D12C0373091F065
:101B90003830A1F03430B9F4809180008F7D03C0DB
:101BA000809180008F77809380000DC084B58F77FF
:101BB00084BD09C08091B0008F7703C08091B000D0
:101BC0008F7D8093B000F0E0EE0FFF1FEB55FF4FCD
:101BD000A591B4918FB7F894EC91611103C0209551
:101BE0002E2301C02E2B2C938FBF0895CF93DF930C
:101BF00090E0FC01ED53FF4F2491FC01E155FF4FB4
:101C00008491882361F190E0880F991FFC01E556CB
:101C1000FF4FC591D491FC01EB55FF4FA591B491B5
:101C2000611109C09FB7F894888120958223888329
:101C3000EC912E230BC0623061F49FB7F894388189
:101C4000822F809583238883EC912E2B2C939FBF2A
:101C500006C08FB7F894E8812E2B28838FBFDF91C1
:101C6000CF9108951F93CF93DF93182FEB0161E07D
:101C70000E94F60D209711F460E004C0CF3FD1051B
:101C800039F461E0812FDF91CF911F910C94AA0D5F
:101C9000E12FF0E0E957FF4FE491E330F9F048F429
:101CA000E130B9F0E230A1F584B5806284BDC8BDF1
:101CB00034C0E730E9F0E83019F1E43049F58091BB
:101CC0008000806280938000D0938B00C0938A0054
:101CD00024C084B5806884BDC7BD1FC080918000CA
:101CE000806880938000D0938900C093880015C0DD
:101CF0008091B00080688093B000C093B3000DC0A5
:101D00008091B00080628093B000C093B40005C0A1
:101D1000C038D1050CF0B5CFAFCFDF91CF911F9177
:101D200008958F929F92AF92BF92CF92DF92EF92DF
:101D3000FF926B017C010E94C30B4B015C01C1143B
:101D4000D104E104F104F1F00E94C30BDC01CB01EA
:101D500088199909AA09BB09883E9340A105B105D4
:101D600070F321E0C21AD108E108F10888EE880E6C
:101D700083E0981EA11CB11CC114D104E104F1043C
:101D800019F7DDCFFF90EF90DF90CF90BF90AF902D
:101D90009F908F9008951F920F920FB60F9211246B
:101DA0002F933F938F939F93AF93BF9380911D0683
:101DB00090911E06A0911F06B09120063091F60565
:101DC00023E0230F2D3720F40196A11DB11D05C07E
:101DD00026E8230F0296A11DB11D2093F6058093DE
:101DE0001D0690931E06A0931F06B09320068091B7
:101DF000F7059091F805A091F905B091FA050196C3
:101E0000A11DB11D8093F7059093F805A093F905E6
:101E1000B093FA05BF91AF919F918F913F912F9110
:101E20000F900FBE0F901F901895DC01ED91FC9163
:101E30000684F785E02D40E0099489E097E00C9452
:101E40002101FC0144815581608171818CE696E01D
:101E50000C94BD0ACF93DF930E94210FEC0142E066
:101E600050E067E275E08CE696E00E94BD0A8C0FB8
:101E70009D1FDF91CF91089520916B0690916A0686
:101E8000213208F04AC0809147068111FCCF32E030
:101E90003093470631E0309346063FEF30934506D6
:101EA0001092440620934306AAE4B6E043E256E0CB
:101EB000FA013E2F341B321718F43D913193F9CFBC
:101EC0001092220620912206990F922B90932206BF
:101ED00090912106913061F4109221069091220692
:101EE0009093BB009091BC0093FDF8CF95EC01C09E
:101EF00095EE9093BC00909147069230E1F390915B
:101F000045069F3F79F080914506803241F08091EF
:101F10004506803331F084E005C081E003C082E0F3
:101F200001C083E01092490610926B061092480699
:101F3000089597FD11C020916B0730916C078217AF
:101F4000930754F46031710538F4262F4AE0BC0140
:101F500085E197E00C94540308954F925F926F923D
:101F60007F928F929F92AF92BF92CF92DF92EF9229
:101F7000FF920F931F93CF93DF938B019C01EA0194
:101F800060E472E48FE090E0A90198010E94D41E01
:101F9000EEECF0E064918AEB90E0FC017491E72FA5
:101FA000F0E0EE0FFF1FEB55FF4FA591B491FC0140
:101FB0008491E82FF0E0EE0FFF1FE556FF4F0591EB
:101FC0001491F8018081862B80838FB7F894C0909C
:101FD0001D06D0901E06E0901F06F09020068FBFD1
:101FE00049015A01B694A794979487948401C40137
:101FF000880F991F880F991F059728193909A9017A
:10200000440F551F440F551F455051094E01A12C37
:10201000B12C762F7095EFB7F89440901D06509034
:102020001E0660901F0670902006EFBF4C185D08DA
:102030006E087F08481459046A047B0498F4EC91F4
:10204000E62BEC930230110518F0FC013197F1F703
:10205000EC91E723EC9322303105E8F2FA01319755
:10206000F1F7D9CFDF91CF911F910F91FF90EF90B2
:10207000DF90CF90BF90AF909F908F907F906F90A8
:102080005F904F900895242F97FD1CC040916B07DF
:1020900050916C0784179507ACF46830710590F483
:1020A000FC0133E0EE0FFF1F3A95E1F7EB5EF84FCE
:1020B000E60FF71F208B41E0460FBC0185E197E05A
:1020C0000C9454030895009769F0FC0101900020DE
:1020D000E9F73197AF01481B590BBC018DE697E03A
:1020E0000C94BD0A80E090E00895CF93DF93CDB7C4
:1020F000DEB728970FB6F894DEBF0FBECDBF1D82A6
:1021000090E49E8324E12F8324E5288719829A8313
:1021100090E19B8390E59C8390917407691710F080
:102120006FEF690F40917507262F30E0FE01E20F37
:10213000F31F403121F4943011F4918101C0958155
:10214000682F690F60688DE697E028960FB6F894BF
:10215000DEBF0FBECDBFDF91CF910C94150FCF9294
:10216000DF92EF92FF920F931F93CF93DF93CDB740
:10217000DEB765970FB6F894DEBF0FBECDBF8C01FA
:1021800019821A821B821C82FE01359681E1DF01D1
:102190001D928A95E9F76AE275E0CE0101960E94E8
:1021A0005222000F111FF801E550FA4F6081718132
:1021B000CE0101960E945222F801EF5FF94FE080B4
:1021C000F180F801E150FA4FC080D180F801E3506E
:1021D000FA4F0081118160E080E00E9475100E943A
:1021E000F60561E080E00E9475100E94F60562E04D
:1021F00080E00E9475100E94F60563E080E00E9476
:1022000075100E94F60560E080E00E947510CE0116
:1022100001960E94631061E080E00E947510C80181
:102220000E94631062E080E00E947510C6010E9467
:10223000631063E080E00E947510C7010E94631084
:1022400065960FB6F894DEBF0FBECDBFDF91CF917C
:102250001F910F91FF90EF90DF90CF900895CF9353
:10226000DF93CDB7DEB72F970FB6F894DEBF0FBE62
:10227000CDBF789484B5826084BD84B5816084BD0F
:1022800085B5826085BD85B5816085BD80916E0014
:10229000816080936E001092810080918100826045
:1022A0008093810080918100816080938100809182
:1022B00080008160809380008091B1008460809371
:1022C000B1008091B00081608093B00080917A006D
:1022D000846080937A0080917A00826080937A0093
:1022E00080917A00816080937A0080917A00806882
:1022F00080937A001092C100E0917C06F0917D06F7
:1023000082E08083E0917806F09179061082E09176
:102310007A06F0917B0683E3808310928406E09135
:102320008006F091810686E08083E0917E06F09140
:102330007F06808180618083E0917E06F0917F0638
:10234000808188608083E0917E06F0917F068081A5
:1023500080688083E0917E06F0917F0680818F7D8A
:1023600080836FE674E0CE0101960E94170DCE01C6
:1023700001960E942A0F89819A810E94E22020E022
:1023800044E064E18DE697E00E94AE0C00E010E0CE
:1023900080916B0790916C07081719073CF421E0B6
:1023A0004CE0B80185E197E00E9454036AE070E0D8
:1023B000C8010E94990F80916B0790916C070817D4
:1023C00019072CF4B80185E197E00E94DB030F5F49
:1023D0001F4F04301105E1F661E089E00E94F60D1F
:1023E00061E08AE00E94F60D61E083E00E94F60D54
:1023F00060E080E00E94F60D239A2B98529839985D
:102400003A983B985A9A88B18E6088B989B180937E
:10241000010186B1809300018091680084608093FF
:1024200068008091680082608093680080916D00F0
:10243000846080936D0080916C008E6080936C004E
:1024400078941092D6051092D50583E090E0909391
:10245000D8058093D70586E090E09093DA058093C5
:10246000D9050E94760A40E050E063E08DE697E0EF
:102470000E94E80B61E08DE697E00E94940C62E018
:102480008DE697E00E94150F8BE39FE10197F1F72E
:1024900060E080E00E9475100E94F60560E080E038
:1024A0000E9475108FE794E00E94631061E080E065
:1024B0000E9475100E94F60561E080E00E94751090
:1024C00080E994E00E94631093E0C92ED12C00E0D3
:1024D00010E0E12CF12CF701E65CFD4F4081B701E3
:1024E000C8010E9443102FEFE21AF20A38E0E31607
:1024F000F10489F76AEF70E080E090E00E94910EAD
:10250000E12CF12CF701EE5BFD4F4081B701C801D2
:102510000E9443108FEFE81AF80A98E0E916F104D8
:1025200089F76AEF70E080E090E00E94910E0F5F03
:102530001F4F0330110569F6A1E0CA1AD10839F618
:102540008AE0E8E9F1E0DE01119601900D928A95AA
:10255000E1F7FE0131967F0100E010E0DD24D39425
:10256000A4E0CA2EB5E0BB2E82E0A82E0F5F1F4F5D
:102570000330110509F124F40230110591F006C071
:1025800004301105E1F00530110521F140E050E083
:1025900060E070E08FEF90E00E948507D09202012A
:1025A00023C040E050E06FEF70E080E090E00E94D8
:1025B0008507A092020118C00E94A70715C04FEF1F
:1025C00050E060E070E08AEA90E00E948507C092E7
:1025D00002010AC04FEF50E06FEF70E08FEF90E024
:1025E0000E948507B0920201D7016D917D917D0116
:1025F000072E000C880B990B61157105810591055B
:1026000039F464EF71E080E090E00E94910E04C024
:1026100044EF51E00E94AD0F64E670E080E090E08E
:102620000E94910E0530110509F0A0CF0E949B0772
:1026300088E390E00E94341E6F3F7F4F8F4F9F4F83
:1026400049F440E050E0BA0188E390E00E94401E67
:102650000E94FE0680E090E00E94341E6093A10577
:102660007093A2058093A3059093A40584E090E065
:102670000E94341E60939D0570939E0580939F0574
:102680009093A00588E090E00E94341E6093990525
:1026900070939A0580939B0590939C0582E190E04E
:1026A0000E943A1EA0E0B0E08093950590939605B5
:1026B000A0939705B093980586E190E00E943A1E9A
:1026C000909394058093930588E190E00E943A1ED0
:1026D000A0E0B0E080938F0590939005A0939105C2
:1026E000B093920582E290E00E943A1E90938E058C
:1026F00080938D0584E290E00E943A1E90938C05B1
:1027000080938B0584E390E00E94341E60937505EE
:1027100070937605809377059093780582E490E036
:102720000E94341E6093A9057093AA058093AB059F
:102730009093AC0586E490E00E94341E7093CC0523
:102740006093CB050E94060410927A0510927905D9
:102750001092490610926B060E94360380E2809325
:10276000B8008091D30581608093D30582E0809387
:10277000D4058091A9059091AA05A091AB05B091CF
:10278000AC058093A5059093A605A093A705B093EB
:10279000A8050E94360882E2ECE6F1E0ABEFB5E076
:1027A00001900D928A95E1F786E090E090936B019D
:1027B00080936A0180E480937C0080917A00806439
:1027C00080937A0080917A0086FDFCCF609178003A
:1027D0008091790070E0782B072E000C880B990B04
:1027E000611571058105910511F00E94911CF9E1B7
:1027F0004F2E512C612C712C1E01EBE02E0E311C42
:102800002E863F868091D405882309F4BBC280912F
:10281000D405813009F0B6C08091D30582608093E1
:10282000D3058091D30582FF0E94760A0E94580743
:102830001B861C861D869E012F5F3F4F790100E09D
:1028400010E08091D30582FD05C061E070E0C80111
:102850000E94990F0E948C1CA30192010E946B1E82
:10286000660F660F660FD7016C93C801880F991F1A
:10287000FC01EB52FA4F6F01F60120813181D70143
:102880008C9190E08217930761F40E948C1CA30145
:1028900092010E946B1E660F660F660FD7016C9344
:1028A000EBCF0F5F1F4FBFEFEB1AFB0A0330110591
:1028B00041F6EE85FF8580E09F0122193309233020
:1028C00031052CF491919130B9F78F5FF5CF8330BA
:1028D00009F45BC2CE0101964C0100E010E07801E2
:1028E000EE0CFF1CF701EB52FA4F80819181893C7D
:1028F000910511F411821082F701EB52FA4F2081F9
:102900003181D4018D914D0190E00196281739074E
:1029100021F18091D30582FF09C0F701EB52FA4FF4
:102920008081918101969183808325C0C12CD12C17
:102930005F01D501ED91FC91EE55FE4FEC0DFD1DB3
:102940004081B601C8010E944310BFEFCB1ADB0AD9
:10295000E8E0CE16D10469F7E0CF8091D30582FD7F
:1029600005C06AE070E0C8010E94990FF101E00F14
:10297000F11F21E020830F5F1F4F0330110509F085
:10298000AECF97CF8091D4058230E1F41092D40578
:102990001092D2051092D10580E090E00E94AF1015
:1029A0008091F4059091F505019711F40E947C0641
:1029B0008091F4059091F505049709F0E3C10E9418
:1029C000FA05E0C18091D405833009F0D7C0809129
:1029D000D30582FD19C04FEF50E060E070E08AEA55
:1029E00090E00E94850784E0809302018091690154
:1029F000882341F02B9A64E670E080E090E00E942A
:102A0000910E2B980E949B078091F4059091F505FB
:102A1000009719F58091D1059091D205009721F486
:102A20008AE08093D405AEC18130910511F48BE02A
:102A3000F8CF8230910511F48CE0F3CF833091050B
:102A400011F48DE0EECF8430910511F48EE0E9CFE2
:102A5000059709F079C08FE0E4CF8130910561F5E9
:102A60008091D1059091D205009761F48091CD05B8
:102A70009091CE05A091CF05B091D0050596A11DEE
:102A8000B11D0FC08130910509F061C08091CD0565
:102A90009091CE05A091CF05B091D0050597A109E1
:102AA000B1098093CD059093CE05A093CF05B09347
:102AB000D0050E947C0648C08230910529F580919E
:102AC000D1059091D2050097A9F48091D30582FF9A
:102AD0000BC08091D3058B7F8093D3058091D30564
:102AE00081608093D30530C08091D305846080934A
:102AF000D30576C08130910551F59091690181E04F
:102B000089278093690120C08330910519F10497CA
:102B100009F038C18091D1059091D205009731F428
:102B20008091CB059091CC05019608C0813091052C
:102B300071F48091CB059091CC0501979093CC05D1
:102B40008093CB050E94FA051092D4051BC1029711
:102B500009F018C182E2ECE6F1E0ABEFB5E00190DC
:102B60000D928A95E1F786E090E090936B01809357
:102B70006A011092F5051092F4054FC08091D405BA
:102B8000843071F40E94760A1092D4058091D105A8
:102B90009091D205181619060CF002CF019717C0B4
:102BA0008091D4058530C1F40E94760A1092D40534
:102BB0008091D1059091D20520916A0130916B01ED
:102BC00021503109821793070CF0EACE01969093B9
:102BD000D2058093D105E2CE8091D4058A3011F4DC
:102BE00081E01FCF8091D4058B30C9F40E94760A12
:102BF00082E2E7E4F1E0ABEFB5E001900D928A9557
:102C0000E1F783E090E090936B0180936A0181E0AB
:102C100090E09093F5058093F40582E002CF8091D7
:102C2000D4058F30A1F40E94760A82E2E5E2F1E059
:102C3000ABEFB5E001900D928A95E1F783E090E06B
:102C400090936B0180936A0184E090E0E2CF8091E1
:102C5000D4058C30C1F40E94760A82E2E3E0F1E010
:102C6000ABEFB5E001900D928A95E1F783E090E03B
:102C700090936B0180936A0182E090E09093F50558
:102C80008093F405CECE8091D4058D30E1F40E947E
:102C9000760A0E9406048EE1EDEAF5E0ABEFB5E0BE
:102CA00001900D928A95E1F78FE090E090936B018F
:102CB00080936A0183E090E09093F5058093F4059A
:102CC0000E94930AAACF8091D4058E3009F05AC091
:102CD0000E94760A0E94760A0E94FE061092A105C2
:102CE0001092A2051092A3051092A40510929D05C2
:102CF00010929E0510929F051092A00510929905C2
:102D000010929A0510929B0510929C0510929505C1
:102D100010929605109297051092980510929405BE
:102D20001092930510928F051092900510929105C4
:102D30001092920510928E0510928D0510928C05BE
:102D400010928B0584EF91E0A0E0B0E08093A9059C
:102D50009093AA05A093AB05B093AC051092CC0557
:102D60001092CB058093A5059093A605A093A70587
:102D7000B093A8050E9458070E9406041092D4053B
:102D80000E94760A0E94B90B3DCD20917C0580E01F
:102D900090E0FC01EE0FFF1FEB52FA4F4081518192
:102DA0004139510509F42F5F01968330910589F768
:102DB00020937C0510917B0580E090E020E030E0DE
:102DC000FC01EE0FFF1FEB52FA4F60817181D901B8
:102DD000AA0FBB1FAB52BA4F4D915C916150710964
:102DE000415051096417750709F41F5F2F5F3F4F6A
:102DF0002330310551F7019683309105F9F61930EA
:102E000069F483E080937B05809187059091880524
:102E10000196909388058093870521C01530B9F4F9
:102E200082E080937B0580917D0590917E05A09145
:102E30007F05B09180050196A11DB11D80937D0590
:102E400090937E05A0937F05B093800508C0133052
:102E500019F410927B0503C08FEF80937B0580915E
:102E60007C05833051F48091890590918A05019603
:102E700090938A058093890521C0823051F4809116
:102E8000850590918605019690938605809385052A
:102E900015C0813099F48091810590918205A091AF
:102EA0008305B09184050196A11DB11D8093810514
:102EB00090938205A0938305B093840500918905C2
:102EC00010918A050115110509F443C01092880577
:102ED0001092870510928605109285051092810543
:102EE00010928205109283051092840510927D0540
:102EF00010927E0510927F051092800510927B053E
:102F00006091CD057091CE058091CF059091D0054F
:102F10000E94151D6B017C016091CB057091CC0561
:102F2000072E000C880B990B0E94171D20E030E043
:102F300048EC52E40E94721F20E030E046E154E485
:102F40000E94761D9B01AC0160E070E086E194E494
:102F5000A3C08091870590918805892B09F43FC013
:102F600010928605109285051092810510928205B7
:102F7000109283051092840510927D0510927E05B3
:102F800010927F051092800510927B056091CD050F
:102F90007091CE058091CF059091D0050E94151DAE
:102FA0006B017C016091CB057091CC05072E000C64
:102FB000880B990B0E94171D20E030E048EC52E48A
:102FC0000E94721F20E030E044EF52E40E94761D20
:102FD0009B01AC0160E070E084EF92E45DC0809101
:102FE000850590918605009749F010928105109211
:102FF000820510928305109284050CC040918105D2
:10300000509182056091830570918405452B462B74
:10301000472B49F010927D0510927E0510927F0596
:10302000109280050CC040917D0550917E05609105
:103030007F0570918005452B462B472B11F0109290
:103040007B05892B09F4AAC26091CD057091CE054C
:103050008091CF059091D0050E94151D6B017C01D8
:103060006091CB057091CC05072E000C880B990B55
:103070000E94171D20E030E048EC52E40E94721FCD
:1030800020E030E048E452E40E94761D9B01AC0150
:1030900060E070E088E492E40E94051F9B01AC01AF
:1030A000C701B6010E94761D4B015C0120E030E0B3
:1030B000A9010E941A2087FF04C00CC0812C912C0A
:1030C000540120E030E040E05FE3C501B4010E941C
:1030D000061F08C020E030E040E05FE3C501B40116
:1030E0000E94051F0E94E41F6B017C010E94171DB6
:1030F0009B01AC01C501B4010E94051F2091EC05A4
:103100003091ED054091EE055091EF050E94061FAC
:103110004B015C0120E030E040E85FE30E941A20B0
:1031200087FF13C020E030E040E85FEBC501B40149
:103130000E94101D18164CF48092EC059092ED053B
:10314000A092EE05B092EF0530C020E030E0A9017A
:10315000C501B4010E941A2020E030E040E05FE3A6
:1031600087FD05C0C501B4010E94061F04C0C5014A
:10317000B4010E94051F0E94E41F072E000C880B5B
:10318000990BC60ED71EE81EF91E0E94171D9B0143
:10319000AC01C501B4010E94051F6093EC0570935A
:1031A000ED058093EE059093EF058091CD0590910C
:1031B000CE05A091CF05B091D005C81AD90AEA0A68
:1031C000FB0A4091A1055091A2056091A305709161
:1031D000A4054C0D5D1D6E1D7F1D4093A1055093F0
:1031E000A2056093A3057093A40540919D0550919D
:1031F0009E0560919F057091A005840F951FA61FE5
:10320000B71F80939D0590939E05A0939F05B09353
:10321000A0058091A9059091AA05A091AB05B09158
:10322000AC058093A5059093A605A093A705B09340
:10323000A805C80ED91EEA1EFB1EC092A905D09291
:10324000AA05E092AB05F092AC05809199059091AA
:103250009A05A0919B05B0919C050196A11DB11DF9
:103260008093990590939A05A0939B05B0939C0534
:10327000409195055091960560919705709198053C
:1032800080917D0590917E05A0917F05B09180058C
:10329000840F951FA61FB71F8093950590939605E1
:1032A000A0939705B09398052091930530919405CC
:1032B0008091870590918805820F931F90939405C4
:1032C0008093930540918F055091900560919105F1
:1032D000709192058091810590918205A09183055E
:1032E000B0918405840F951FA61FB71F80938F058B
:1032F00090939005A0939105B093920520918D0530
:1033000030918E058091850590918605820F931FDF
:1033100090938E0580938D0580918B0590918C05FF
:10332000080F191F10938C0500938B058091D3050E
:1033300082FD4BC00E9408090E94360880918905D1
:1033400090918A05892B19F00E94B30706C08091DD
:10335000870590918805892B29F00E94B3070E9468
:10336000B30719C08091850590918605892B39F0A6
:103370000E94B3070E94B3070E94B30723C0809145
:10338000810590918205A0918305B0918405892BD8
:103390008A2B8B2B19F00E94B3070CC080917D05FE
:1033A00090917E05A0917F05B0918005892B8A2B95
:1033B0008B2B41F00E94B30768EE73E080E090E051
:1033C0000E94910E0E940604D2C06091F005709197
:1033D000F1058091F2059091F3058B019C010F5F3F
:1033E0001F4F2F4F3F4F0093F0051093F10520938F
:1033F000F2053093F30520E137E240E050E00E940F
:10340000D41E672B682B692B09F0B1C00E940809F4
:103410000E9436080E9406040E94930AC090EC05A0
:10342000D090ED05E090EE05F090EF0566E974E0D0
:10343000CE0101960E94170DCE0101960E94210F28
:1034400089819A810E94E2201A8219821C821B8241
:103450001E821D8264E870E0CE0101960E94EF0C8E
:10346000CE0101960E94210F89819A810E94E2205B
:1034700020E030E0A901C701B6010E94101D87FFBE
:103480000AC08DE28093DB05F7FAF094F7F8F09428
:103490000CED15E002C00BED15E0C701B6010E946E
:1034A000EB1FB62EA72E982E892E0E94151D9B016C
:1034B000AC01C701B6010E94051F20E034E244E7D9
:1034C00059E40E94761D0E94EB1F9F938F937F9378
:1034D0006F938F929F92AF92BF9281EA94E09F93F5
:1034E0008F931F930F930E9464226BED75E0CE01C2
:1034F00001960E94170DCE0101960E942A0F898124
:103500009A810E94E2200FB6F894DEBF0FBECDBFB5
:1035100001E810E0F801649161111AC08091F00592
:103520009091F105A091F205B091F3058034924499
:10353000AF40B105E0F08091D3058B7F8093D30538
:103540008091D30581608093D3051092D4050FC07C
:10355000E0916C06F0916D060190F081E02D8CE613
:1035600096E009950F5F1F4F892BA1F6D7CF809169
:10357000D3058D7F8093D3058091D30582FF06C04C
:103580008091D405833009F02BCBFCCB1092D4056D
:103590008091D30581608093D305F4CB8091810520
:1035A00090918205A0918305B0918405892B8A2B87
:1035B0008B2B49F16091CD057091CE058091CF059F
:1035C0009091D0050E94151D6B017C016091CB0587
:1035D0007091CC05072E000C880B990B0E94171DCB
:1035E00020E030E048EC52E40E94721F20E030E01E
:1035F00040E450E40E94761D9B01AC0160E070E065
:1036000080E490E449CD80917D0590917E05A09164
:103610007F05B0918005892B8A2B8B2B09F44ECD29
:103620006091CD057091CE058091CF059091D00528
:103630000E94151D6B017C016091CB057091CC053A
:10364000072E000C880B990B0E94171D20E030E01C
:1036500048EC52E40E94721F9B01AC010E94061FBD
:103660009B01AC0160E070E080E090E415CDCF9369
:10367000DF9310926F0610926E0688EE93E0A0E042
:10368000B0E08093700690937106A0937206B09399
:10369000730620E732E030936D0620936C0625EC2C
:1036A00030E0309379062093780624EC30E03093B4
:1036B0007B0620937A0620EC30E030937D06209341
:1036C0007C0621EC30E030937F0620937E0622ECCE
:1036D00030E0309381062093800626EC30E0309372
:1036E0008306209382061092850610928606109219
:1036F00087061092880610920C0710920B07809391
:103700000D0790930E07A0930F07B093100782E860
:1037100092E090930A078093090710927007109225
:103720006F0784E992E090936E0780936D07109283
:103730007D078FEF80937C0710927B0710927E07A6
:103740008FE3809378071092790710927A0710928E
:1037500077071092760784E080937F0782E080935A
:10376000800781E08093810780E18093820780E277
:103770008093830780E48093840780E880938507A3
:10378000C8E0D0E0D0936607C09365078DE090E075
:1037900090936807809367078CE090E090936A07A6
:1037A0008093690784E090E090936C0780936B07A7
:1037B00061E088E00E94F60D61E0809167070E9459
:1037C000F60D61E0809169070E94F60D61E080913D
:1037D00069070E94AA0DD0936607C0936507E5E2CA
:1037E000F7E0119287E0E536F807D9F7C0E0D0E0BE
:1037F00080916B0790916C07C817D907E4F520E01A
:103800004FE0BE0185E197E00E945403D7FD0EC052
:1038100080916B0790916C07C817D9073CF427E09B
:103820004BE0BE0185E197E00E94540320E049E0AF
:10383000BE0185E197E00E945403D7FD1AC0809134
:103840006B0790916C07C817D9072CF4BE0185E16E
:1038500097E00E94DB0380916B0790916C07C8177B
:10386000D9073CF420E04CE0BE0185E197E00E94DE
:1038700054032196BDCFDF91CF9108958F929F92EF
:10388000AF92BF92CF92DF92EF92FF92CF93DF93EE
:10389000EC01688179818A819B81611571058105BF
:1038A000910521F464E279ED8BE597E02DE133EFAA
:1038B00041E050E00E946B1E49015A019B01AC019E
:1038C000A7EAB1E40E948A1E6B017C01ACEEB4EF62
:1038D000A50194010E94981EDC01CB018C0D9D1D59
:1038E000AE1DBF1DB7FF03C00197A109B048888373
:1038F0009983AA83BB83BC01CD019F77DF91CF91D0
:10390000FF90EF90DF90CF90BF90AF909F908F90FF
:1039100008950E943E1C08958EE891E00E943E1C8E
:10392000089560938E0170938F018093900190931E
:1039300091010895FB01DC0105900D920020E1F753
:103940000895FC0105900020E9F7809590958E0F71
:103950009F1F0895BB274A3031F4992322F4BDE21A
:10396000909581959F4F0C94E71CBB272A3051F40A
:10397000992342F4BDE290958095709561957F4FB3
:103980008F4F9F4F0C94C51CBB27FA01A62F6217BF
:10399000710581059105330B30FB66F0AA27660F90
:1039A000771F881F991FAA1FA21710F0A21B6395EB
:1039B0003850A9F7A05DAA3308F0A95DA19336F7A6
:1039C000B111B1931082CA010C94001DBB27FB01F9
:1039D0005527AA27880F991FAA1FA41710F0A41B08
:1039E00083955051B9F7A05DAA3308F0A95DA19362
:1039F000009779F7B111B1931192CB010C94001D8E
:103A0000DC01FC01672F71917723E1F7329704C045
:103A10007C916D9370836291AE17BF07C8F30895D0
:103A20000E94521D08F481E00895E89409C097FBB4
:103A30003EF490958095709561957F4F8F4F9F4F85
:103A40009923A9F0F92F96E9BB279395F6958795C9
:103A500077956795B795F111F8CFFAF4BB0F11F48C
:103A600060FF1BC06F5F7F4F8F4F9F4F16C0882333
:103A700011F096E911C0772321F09EE8872F762F69
:103A800005C0662371F096E8862F70E060E02AF0AA
:103A90009A95660F771F881FDAF7880F9695879596
:103AA00097F90895990F0008550FAA0BE0E8FEEF6B
:103AB00016161706E807F907C0F012161306E407F2
:103AC000F50798F0621B730B840B950B39F40A26EB
:103AD00061F0232B242B252B21F408950A2609F4C9
:103AE000A140A6958FEF811D811D08950E94891D1B
:103AF0000C94FA1D0E94EC1D38F00E94F31D20F07A
:103B0000952311F00C94E31D0C94E91D11240C94E1
:103B10002E1E0E940B1E70F3959FC1F3950F50E06F
:103B2000551F629FF001729FBB27F00DB11D639F6F
:103B3000AA27F00DB11DAA1F649F6627B00DA11D15
:103B4000661F829F2227B00DA11D621F739FB00DBB
:103B5000A11D621F839FA00D611D221F749F33272B
:103B6000A00D611D231F849F600D211D822F762FC4
:103B70006A2F11249F5750409AF0F1F088234AF0A1
:103B8000EE0FFF1FBB1F661F771F881F915050400D
:103B9000A9F79E3F510580F00C94E31D0C942E1E56
:103BA0005F3FE4F3983ED4F3869577956795B79594
:103BB000F795E7959F5FC1F7FE2B880F911D9695AE
:103BC000879597F9089597F99F6780E870E060E01E
:103BD00008959FEF80EC089500240A9416161706A6
:103BE00018060906089500240A94121613061406EE
:103BF00005060895092E0394000C11F4882352F051
:103C0000BB0F40F4BF2B11F460FF04C06F5F7F4F08
:103C10008F4F9F4F089557FD9058440F551F59F0EF
:103C20005F3F71F04795880F97FB991F61F09F3FA9
:103C300079F087950895121613061406551FF2CFD2
:103C40004695F1DF08C0161617061806991FF1CF22
:103C500086957105610508940895E894BB27662749
:103C60007727CB0197F90895A6E1B0E044E050E052
:103C70000C944F1EA8E1B0E042E050E00C944F1EBF
:103C8000242F0E945E1E252F0E945E1E0C94481E4B
:103C90000E945D1E272F0C945E1EDC01CB01FC01EF
:103CA000F999FECF06C0F2BDE1BDF89A319600B495
:103CB0000D9241505040B8F70895262FF999FECF44
:103CC0001FBA92BD81BD20BD0FB6F894FA9AF99A39
:103CD0000FBE01960895052E97FB1EF400940E94D6
:103CE000821E57FD07D00E94D41E07FC03D04EF45D
:103CF0000C94821E50954095309521953F4F4F4F23
:103D00005F4F089590958095709561957F4F8F4F87
:103D10009F4F08950E94F61EA59F900DB49F900D91
:103D2000A49F800D911D11240895B7FF0C948A1E45
:103D30000E948A1E821B930B08952F923F924F92EE
:103D40005F926F927F928F929F92AF92BF92CF922B
:103D5000DF92EF92FF920F931F93CF93DF93CDB734
:103D6000DEB7CA1BDB0B0FB6F894DEBF0FBECDBFAC
:103D700009942A88398848885F846E847D848C847D
:103D80009B84AA84B984C884DF80EE80FD800C8186
:103D90001B81AA81B981CE0FD11D0FB6F894DEBF69
:103DA0000FBECDBFED010895A1E21A2EAA1BBB1BC9
:103DB000FD010DC0AA1FBB1FEE1FFF1FA217B307F7
:103DC000E407F50720F0A21BB30BE40BF50B661F0D
:103DD000771F881F991F1A9469F7609570958095D1
:103DE00090959B01AC01BD01CF010895A29FB00148
:103DF000B39FC001A39F700D811D1124911DB29F1F
:103E0000700D811D1124911D08955058BB27AA27BC
:103E10000E941D1F0C94FA1D0E94EC1D38F00E9498
:103E2000F31D20F039F49F3F19F426F40C94E91D9A
:103E30000EF4E095E7FB0C94E31DE92F0E940B1EA6
:103E400058F3BA17620773078407950720F079F4CF
:103E5000A6F50C942D1E0EF4E0950B2EBA2FA02D76
:103E60000B01B90190010C01CA01A0011124FF2727
:103E7000591B99F0593F50F4503E68F11A16F04022
:103E8000A22F232F342F4427585FF3CF4695379521
:103E90002795A795F0405395C9F77EF41F16BA0BE6
:103EA000620B730B840BBAF09150A1F0FF0FBB1F94
:103EB000661F771F881FC2F70EC0BA0F621F731FDD
:103EC000841F48F4879577956795B795F7959E3F3A
:103ED00008F0B0CF9395880F08F09927EE0F9795CB
:103EE000879508950E94861F0C94FA1D0E94F31D69
:103EF00058F00E94EC1D40F029F45F3F29F00C942B
:103F0000E31D51110C942E1E0C94E91D0E940B1EF2
:103F100068F39923B1F3552391F3951B550BBB27F8
:103F2000AA2762177307840738F09F5F5F4F220F3D
:103F3000331F441FAA1FA9F335D00E2E3AF0E0E834
:103F400032D091505040E695001CCAF72BD0FE2F7E
:103F500029D0660F771F881FBB1F26173707480712
:103F6000AB07B0E809F0BB0B802DBF01FF279358CA
:103F70005F4F3AF09E3F510578F00C94E31D0C948E
:103F80002E1E5F3FE4F3983ED4F3869577956795B0
:103F9000B795F7959F5FC9F7880F911D96958795FF
:103FA00097F90895E1E0660F771F881FBB1F62171E
:103FB00073078407BA0720F0621B730B840BBA0BDC
:103FC000EE1F88F7E09508950E94EB1F6894B111E9
:103FD0000C942E1E08950E94131E88F09F5798F08F
:103FE000B92F9927B751B0F0E1F0660F771F881FFE
:103FF000991F1AF0BA95C9F714C0B13091F00E9418
:104000002D1EB1E008950C942D1E672F782F882760
:10401000B85F39F0B93FCCF3869577956795B3953E
:10402000D9F73EF490958095709561957F4F8F4FAD
:104030009F4F08950E94521D08F48FEF089597FB3B
:10404000072E16F4009407D077FD09D00E94332084
:1040500007FC05D03EF4909581959F4F089570958B
:1040600061957F4F0895AA1BBB1B51E107C0AA1F92
:10407000BB1FA617B70710F0A61BB70B881F991F09
:104080005A95A9F780959095BC01CD010895EE0F42
:10409000FF1F0590F491E02D0994CF93DF938230B8
:1040A000910510F482E090E0E0918807F091890793
:1040B00020E030E0C0E0D0E0309711F14081518144
:1040C00048175907C0F04817590761F48281938156
:1040D000209719F09B838A832BC090938907809344
:1040E000880726C02115310519F04217530718F427
:1040F0009A01BE01DF01EF010280F381E02DDCCFE8
:104100002115310509F1281B390B2430310590F4B4
:1041100012968D919C9113976115710521F0FB0109
:104120009383828304C09093890780938807FD015D
:10413000329644C0FD01E20FF31F81939193225008
:1041400031092D933C933AC020918607309187071F
:10415000232B41F4209194013091950130938707EE
:10416000209386072091920130919301211531050A
:1041700041F42DB73EB74091960150919701241B11
:10418000350BE0918607F0918707E217F307A0F45B
:104190002E1B3F0B2817390778F0AC014E5F5F4F9D
:1041A0002417350748F04E0F5F1F50938707409341
:1041B00086078193919302C0E0E0F0E0CF01DF91A8
:1041C000CF9108950F931F93CF93DF93009709F436
:1041D0008CC0FC01329713821282009188071091E3
:1041E00089070115110581F420813181820F931F08
:1041F00020918607309187072817390779F5F093C2
:104200008707E093860771C0D80140E050E0AE1701
:10421000BF0750F412962D913C911397AD012115D3
:10422000310509F1D901F3CF9D01DA0133832283EE
:1042300060817181860F971F8217930769F4EC01E3
:1042400028813981260F371F2E5F3F4F318320830E
:104250008A819B8193838283452B29F4F09389077C
:10426000E093880742C01396FC93EE931297ED01FA
:10427000499159919E01240F351FE217F30771F4FC
:1042800080819181840F951F029611969C938E9345
:104290008281938113969C938E931297E0E0F0E0D5
:1042A000D80112968D919C911397009719F0F801FF
:1042B0008C01F6CF8D919C9198012E5F3F4F820F1C
:1042C000931F20918607309187072817390769F4D3
:1042D000309729F4109289071092880702C0138240
:1042E00012821093870700938607DF91CF911F9169
:1042F0000F910895A0E0B0E0E0E8F1E20C94A11E77
:10430000EC01009721F4CB010E944D20B8C0FC01C4
:10431000E60FF71F9C0122503109E217F30708F45A
:10432000ACC0D9010D911C91119706171707B0F079
:104330000530110508F49FC0C80104978617970738
:1043400008F499C002501109061B170B0193119331
:104350006D937C93CF010E94E2208DC05B01A01A77
:10436000B10A4C01800E911EA0918807B091890777
:1043700040E050E0E12CF12C109709F44AC0A81558
:10438000B905D1F56D907C901197630182E0C80E5C
:10439000D11CCA14DB0480F1A3014A195B096A012C
:1043A00082E0C80ED11C1296BC9012971396AC9165
:1043B000B5E0CB16D10440F0B282A3835183408391
:1043C000D9016D937C930AC00E5F1F4FC301800F0C
:1043D000911FF90191838083EB2DFA2FE114F104F1
:1043E00031F0D7011396FC93EE93129744C0F093EB
:1043F0008907E09388073FC08D919C9111974817DA
:10440000590708F4AC017D0112960D90BC91A02DC6
:10441000B3CF809186079091870788159905E1F4BD
:1044200046175707C8F48091920190919301009725
:1044300041F48DB79EB74091960150919701841B2E
:10444000950BE817F907C8F4F0938707E093860700
:10445000F901718360830FC0CB010E944D207C0164
:10446000009759F0A801BE010E944922CE010E9486
:10447000E220C70104C0CE0102C080E090E0CDB7C9
:10448000DEB7EEE00C94BD1E81E090E0F8940C9451
:104490000525FB01DC0102C001900D924150504006
:1044A000D8F70895FB01DC010D900020E9F7119782
:1044B00001900D920020E1F70895FB01DC010190CD
:1044C0000D920020E1F70895AEE0B0E0EAE6F2E2F6
:1044D0000C94AB1E0D891E8986E08C831A83098398
:1044E0008FEF9FE79E838D83AE01475E5F4F6F899D
:1044F000788DCE0101960E9487222F813885F801A0
:10450000E20FF31F10822E96E4E00C94C71EACE07D
:10451000B0E0EDE8F2E20C949D1E7C016B018A0193
:10452000FC0117821682838181FFBDC1CE010196F5
:104530004C01F7019381F60193FD859193FF8191E1
:104540006F01882309F4ABC1853239F493FD85915D
:1045500093FF81916F01853229F4B70190E00E94A9
:104560006F24E7CF512C312C20E02032A0F48B3285
:1045700069F030F4803259F0833269F420612CC044
:104580008D3239F0803339F4216026C022602460F6
:1045900023C0286021C027FD27C030ED380F3A30F6
:1045A00078F426FF06C0FAE05F9E300D1124532EEA
:1045B00013C08AE0389E300D1124332E20620CC0C7
:1045C0008E3221F426FD6BC1206406C08C3611F4B6
:1045D000206802C0883641F4F60193FD859193FF6F
:1045E00081916F018111C1CF982F9F7D9554933098
:1045F00028F40C5F1F4FFFE3F9830DC0833631F0C1
:10460000833771F0833509F05BC022C0F8018081E7
:1046100089830E5F1F4F44244394512C540115C0CD
:104620003801F2E06F0E711CF801A080B18026FF06
:1046300003C0652D70E002C06FEF7FEFC5012C87CE
:104640000E9464242C0183012C852F77222E17C011
:104650003801F2E06F0E711CF801A080B18026FFD6
:1046600003C0652D70E002C06FEF7FEFC5012C879E
:104670000E9459242C012C852068222E830123FCC2
:104680001BC0832D90E048165906B0F4B70180E2B4
:1046900090E00E946F243A94F4CFF50127FC8591B5
:1046A00027FE81915F01B70190E00E946F243110D5
:1046B0003A94F1E04F1A51084114510471F7E5C0E2
:1046C000843611F0893639F5F80127FF07C060817B
:1046D0007181828193810C5F1F4F08C0608171815D
:1046E000072E000C880B990B0E5F1F4F2F76722E32
:1046F00097FF09C090958095709561957F4F8F4F7A
:104700009F4F2068722E2AE030E0A4010E94A72467
:10471000A82EA81844C0853729F42F7EB22E2AE08F
:1047200030E025C0F22FF97FBF2E8F36C1F018F48C
:10473000883579F0B4C0803719F0883721F0AFC0E0
:104740002F2F2061B22EB4FE0DC08B2D8460B82EA9
:1047500009C024FF0AC09F2F9660B92E06C028E02A
:1047600030E005C020E130E002C020E132E0F80195
:10477000B7FE07C060817181828193810C5F1F4FFA
:1047800006C06081718180E090E00E5F1F4FA40140
:104790000E94A724A82EA818FB2DFF777F2E76FE57
:1047A0000BC0372D3E7FA51450F474FE0AC072FC76
:1047B00008C0372D3E7E05C0BA2C372D03C0BA2C59
:1047C00001C0B52C34FF0DC0FE01EA0DF11D808142
:1047D000803311F4397E09C032FF06C0B394B3941C
:1047E00004C0832F867809F0B39433FD13C030FFE3
:1047F00006C05A2CB31418F4530C5B18B32CB31422
:1048000068F4B70180E290E03C870E946F24B39483
:104810003C85F5CFB31410F43B1801C0312C34FFA4
:1048200012C0B70180E390E03C870E946F243C8572
:1048300032FF17C031FD03C088E790E002C088E571
:1048400090E0B7010CC0832F867859F031FF02C089
:104850008BE201C080E237FD8DE2B70190E00E945B
:104860006F24A51438F4B70180E390E00E946F2410
:104870005A94F7CFAA94F401EA0DF11D8081B70193
:1048800090E00E946F24A110F5CF332009F451CE9F
:10489000B70180E290E00E946F243A94F6CFF701CE
:1048A0008681978102C08FEF9FEF2C96E2E10C94F6
:1048B000B91EFC010590615070400110D8F7809539
:1048C00090958E0F9F1F0895FC01615070400190DC
:1048D0000110D8F7809590958E0F9F1F08950F9324
:1048E0001F93CF93DF93FB01238121FD03C08FEF43
:1048F0009FEF28C022FF16C0468157812481358151
:104900004217530744F4A081B1819D012F5F3F4FAF
:10491000318320838C93268137812F5F3F4F3783EC
:10492000268310C0EB01092F182F0084F185E02D9C
:104930000995892BE1F68E819F8101969F838E8355
:10494000812F902FDF91CF911F910F910895FA0140
:10495000AA27283051F1203181F1E8946F936E7FBE
:104960006E5F7F4F8F4F9F4FAF4FB1E03ED0B4E0AF
:104970003CD0670F781F891F9A1FA11D680F791FF0
:104980008A1F911DA11D6A0F711D811D911DA11D01
:1049900020D009F468943F912AE0269F1124301911
:1049A000305D3193DEF6CF010895462F4770405DAC
:1049B0004193B3E00FD0C9F7F6CF462F4F70405D5B
:1049C0004A3318F0495D31FD4052419302D0A9F7B6
:1049D000EACFB4E0A6959795879577956795BA95B0
:1049E000C9F700976105710508959B01AC010A2E76
:1049F00006945795479537952795BA95C9F7620F4D
:0E4A0000731F841F951FA01D0895F894FFCF0B
:104A0E000E0401AE04BA04C8045E045E045E045EC5
:104A1E00045E045E045E045E045E045E045E045E78
:104A2E00045E045E04CE04DB0475035E045E045E65
:104A3E00045E045E045E045E045E045E045E045E58
:104A4E00045E045E045E04E804F50475035E045E11
:104A5E00045E045E045E045E045E045E045E045E38
:104A6E00045E045E045E045E040106000205070592
:104A7E000B0514051C0522055E045E045E045E042F
:104A8E005E045E045E045E045E045E045E04010069
:104A9E00000000008A0780006E007B00620031007B
:104AAE004900995A3CFFFF3C5A9900000018180023
:104ABE000000FFFF00FFFF00FFFF66FFFFFFFF7E0E
:104ACE003C180060600000060600007E7E0C183860
:104ADE003800183C5A381C5A3C18006060181806EA
:104AEE0006002424FF2424FF2424000000FFFF00DE
:104AFE0000000066660000666600FF8181F3E7C76E
:104B0E00C7FFDBDB00DBDB00DBDB0066661818664D
:104B1E00660000FFFF0000FFFF0042247EDBFFFF68
:104B2E00A5240024001842423C1800DBDB0000DB09
:104B3E00DB0000003C7EAB7E3C00183C7EDBFF249D
:104B4E005AA5183C7EDBFF245A420081FFDBFF7E14
:104B5E0024421030101010101038384482040810FF
:104B6E0020FEFF02041C020408E005000000000005
:104B7E00500BBD0AE80A970B190BF70A0B0B000036
:104B8E0000002101F1005101CB00E900DA00CC0058
:104B9E0000000000FC0BBD0A51015001AE0CE80BE9
:104BAE00940C730C31202020202020202020202047
:104BBE0020202020202000322020202020202020F5
:104BCE0020202020202020202000332020202020E4
:104BDE0020202020202020202020202000342020D3
:104BEE0020202020202020202020202020202000D7
:104BFE003520202020202020202020202020202092
:104C0E0020200036202020202020202020202020A0
:104C1E00202020202000372020202020202020208F
:104C2E00202020202020202000382020202020207E
:104C3E00202020202020202020202000392020206D
:104C4E002020202020202020202020202020003165
:104C5E003020202020202020202020202020202036
:104C6E002000313120202020202020202020202034
:104C7E0020202020004261636B0050617965644FF3
:104C8E0075742020202020202020202000576167CE
:104C9E006572656420202020202020202020200006
:104CAE00506C61797320202020202020202020208D
:104CBE0020200032204D61746368202020202020A7
:104CCE0020202020200033204D6174636820202096
:104CDE0020202020202020200053686970203120C1
:104CEE004D61746368202020202020005368697075
:104CFE002032204D61746368202020202020005334
:104D0E006869702033204D61746368202020202054
:104D1E002000454570726F6D20202020202020201D
:104D2E0020202020004372656469747320202020A7
:104D3E002020202020202000486F6C64202020207E
:104D4E002020202020202020202000202020202075
:104D5E002020202020202020202020202020200065
:104D6E00486F6C643A200057616765723A200053B1
:104D7E006C6F744D616368696E652E696E6F00436A
:104D8E006C6F736520456E636F756E74657273001C
:104D9E00536C6F7473006F776564457863657373D6
:104DAE0000256C752E2531302E31306C7500417515
:104DBE00746F2F4D616E75616C00546F67676C6513
:104DCE0020536F756E6420004261636B20002B319F
:104DDE002070657263656E743A20002D3120706507
:104DEE007263656E743A20002B35206372656469B8
:104DFE0074733A20002D3520637265646974733ABA
:104E0E002000506C617900426574005365747469BA
:104E1E006E6773004D6574726963730052657365D6
:0E4E2E007400486F6C64000D0A002D3E0000F9
:00000001FF
