:100000000C949D000C94C5000C94C5000C94C50084
:100010000C94C5000C94C5000C94C5000C94C5004C
:100020000C94C5000C94C5000C94C5000C94C5003C
:100030000C94C5000C94C5000C94C5000C94C5002C
:100040000C9462060C94C5000C9430060C940A06BD
:100050000C94C5000C94C5000C94C5000C94C5000C
:100060000C94AC060C94C5000000000800020100CE
:100070000003040700000000000000007E306D79DE
:10008000335B5F707F7B771F0D3D4F4700000000A3
:100090000000000000000000000000000000000060
:1000A0000000000000000000800180007E306D79BB
:1000B000335B5F707F7B00000000000000771F0D46
:1000C0003D4F4700370000000E00000067000000B1
:1000D00000000000000000000000000800771F0D75
:1000E0003D4F4700370000000E00151D670000005F
:1000F0000000000000000000000000000000000000
:10010000250028002B0000000000240027002A0002
:1001100004040404040404040202020202020303AD
:1001200003030303010204081020408001020408B5
:100130001020010204081020DA0711241FBECFEF9F
:10014000D8E0DEBFCDBF23E0AAE4B1E001C01D923C
:10015000A532B207E1F711E0A0E0B1E0E2E6F9E193
:1001600002C005900D92AA34B107D9F710E0CDE98D
:10017000D0E004C02197FE010E949D0ACC39D1072E
:10018000C9F70E94A4080C94AF0C0C94000090E0F6
:10019000FC01EC5DFE4F2491FC01E05FFE4F849179
:1001A000882399F090E0880F991FFC01EA5FFE4FC9
:1001B000A591B491FC01E450FF4F859194918FB7C4
:1001C000F894EC91E22BEC938FBF0895E0919601A7
:1001D000F0919701309729F010920C0210920B02C7
:1001E00009940895CF93DF93AC01E0911302F0914D
:1001F00014023097F1F090910E0280910D02981741
:10020000C0F090E0292F30E02617370754F4D901C9
:10021000AA58BE4FEA01C20FD31F88818C939F5FFB
:10022000F1CF10920E0260930D02CB01DF91CF91BE
:100230000994DF91CF910895CF92DF92EF92FF92D0
:100240000F931F93CF93DF936C017A018B01C0E072
:10025000D0E0CE15DF0589F0D8016D918D01D60172
:10026000ED91FC910190F081E02DC6010995892B5B
:1002700011F47E0102C02196ECCFC701DF91CF912E
:100280001F910F91FF90EF90DF90CF900895FC01A8
:10029000538D448D252F30E0842F90E0821B930BEB
:1002A000541710F0CF96089501970895FC01918D91
:1002B000828D981761F0828DDF01A80FB11D5D96C8
:1002C0008C91928D9F5F9F73928F90E008958FEF36
:1002D0009FEF0895FC01918D828D981731F0828DEA
:1002E000E80FF11D858D90E008958FEF9FEF089541
:1002F000FC01918D228D892F90E0805C9F4F821BA5
:1003000091098F739927089580E292E00E94780105
:1003100021E0892B09F420E0822F0895FC01848DCF
:10032000DF01A80FB11DA35ABF4F2C91848D90E01F
:1003300001968F739927848FA689B7892C93A089FA
:10034000B1898C9180648C93938D848D981306C0B1
:100350000288F389E02D80818F7D80830895EF925C
:10036000FF920F931F93CF93DF93EC0181E0888F6F
:100370009B8D8C8D981305C0E889F989808185FD56
:1003800024C0F62E0B8D10E00F5F1F4F0F73112747
:10039000E02E8C8DE8120CC00FB607FCFACFE8896E
:1003A000F989808185FFF5CFCE010E948E01F1CFC2
:1003B0008B8DFE01E80FF11DE35AFF4FF0820B8F8A
:1003C000EA89FB898081806207C0EE89FF896083AA
:1003D000E889F98980818064808381E090E0DF9101
:1003E000CF911F910F91FF90EF900895CF93DF93DE
:1003F000EC01888D8823C9F0EA89FB89808185FD1D
:1004000005C0A889B9898C9186FD0FC00FB607FC7D
:10041000F5CF808185FFF2CFA889B9898C9185FFBE
:10042000EDCFCE010E948E01E7CFDF91CF910895ED
:1004300080E090E0892B29F00E94840181110C94C6
:100440000000089590E0FC01E859FF4F3491FC0151
:10045000EC5DFE4F2491FC01E05FFE4FE491EE2342
:1004600009F43BC0332339F1333091F038F43130A3
:10047000A9F0323001F584B58F7D12C0373091F08C
:100480003830A1F03430B9F4809180008F7D03C002
:10049000809180008F77809380000DC084B58F7726
:1004A00084BD09C08091B0008F7703C08091B000F7
:1004B0008F7D8093B000F0E0EE0FFF1FE450FF4F00
:1004C000A591B4918FB7F894EC91611103C0209578
:1004D0002E2301C02E2B2C938FBF08953FB7F89485
:1004E0008091040290910502A0910602B09107024A
:1004F00026B5A89B05C02F3F19F00196A11DB11D7F
:100500003FBFBA2FA92F982F8827820F911DA11DB9
:10051000B11DBC01CD0142E0660F771F881F991FF6
:100520004A95D1F708958F929F92AF92BF92CF9242
:10053000DF92EF92FF926B017C010E946E024B01F1
:100540005C01C114D104E104F104F1F00E946E02D7
:10055000DC01CB0188199909AA09BB09883E93409F
:10056000A105B10570F321E0C21AD108E108F10834
:1005700088EE880E83E0981EA11CB11CC114D10422
:10058000E104F10419F7DDCFFF90EF90DF90CF90F9
:10059000BF90AF909F908F90089585ED8093BC00A1
:1005A0008091BC0084FDFCCF10920A020895409116
:1005B000B801262F30E0240F311D21323105DCF443
:1005C00020910A022430C9F4FC0180E090E08617F3
:1005D00058F43091B8012191DC01A856BE4FA30F09
:1005E000B11D2C930196F3CF8091B801680F6093F1
:1005F000B80180E0089581E0089582E008950895AB
:10060000E0910E0280910D02E81730F4F0E0EA5814
:10061000FE4F808190E008958FEF9FEF08959091B5
:100620000E0280910D02981750F4E92FF0E0EA587D
:10063000FE4F208130E09F5F90930E0202C02FEFAB
:100640003FEFC901089580910D0290E020910E02C4
:10065000821B91090895CF93DF9300D0CDB7DEB709
:10066000CB01642F49835A830E94D7024981842F8A
:100670005A81952F0F900F90DF91CF910895CF93CE
:10068000DF931F92CDB7DEB7698361E0CE0101969B
:100690000E94D70281E090E00F90DF91CF91089502
:1006A000089580E090E00895CF93DF93C0E0D0E01C
:1006B00080910D0290E020910E02821B9109181684
:1006C0001906ACF48DEB92E00E940F03092E000C8A
:1006D000AA0BBB0BFE01EE0FFF1FEE0FFF1FE25B2D
:1006E000FE4F80839183A283B3832196E1CF8091D3
:1006F0004E0190914F01A0915001B0915101809312
:100700001B0290931C02A0931D02B0931E02409105
:100710001B0250911C0260911D0270911E0280917B
:10072000520190915301A0915401B0915501BA2FFB
:10073000A92F982F8827842B952BA62BB72B809336
:100740001B0290931C02A0931D02B0931E024091C5
:100750001B0250911C0260911D0270911E0280913B
:10076000560190915701A0915801B0915901DC01B7
:1007700099278827842B952BA62BB72B80931B02B8
:1007800090931C02A0931D02B0931E0240911B0285
:1007900050911C0260911D0270911E0280915A01BD
:1007A00090915B01A0915C01B0915D01B82FAA27E7
:1007B00099278827842B952BA62BB72B80931B0278
:1007C00090931C02A0931D02B0931E0280915E01C3
:1007D00090915F01A0916001B091610190931A0224
:1007E000809319022091190230911A0280916201BE
:1007F00090916301A0916401B0916501BA2FA92F76
:10080000982F8827822B932B90931A02809319029A
:100810008091660190916701A0916801B091690192
:100820008093150290931602A0931702B0931802BA
:1008300040911502509116026091170270911802B2
:1008400080916A0190916B01A0916C01B0916D0152
:10085000BA2FA92F982F8827842B952BA62BB72B3F
:100860008093150290931602A0931702B09318027A
:100870004091150250911602609117027091180272
:1008800080916E0190916F01A0917001B091710102
:10089000DC0199278827842B952BA62BB72B8093D7
:1008A000150290931602A0931702B093180240917C
:1008B00015025091160260911702709118028091F2
:1008C000720190917301A0917401B0917501B82FDC
:1008D000AA2799278827842B952BA62BB72B8093A3
:1008E000150290931602A0931702B093180281E0AC
:1008F00080931F02DF91CF910895299A64E670E0FA
:1009000080E090E00E949302299808952F923F92F0
:100910004F925F926F927F928F929F92AF92BF920F
:10092000CF92DF92EF92FF920F931F93CF93DF93BB
:1009300000D0CDB7DEB78C0149832A83660F771FBD
:10094000F801EA5AFF4FE080F180EE0CFF1CF8013D
:10095000CF01801B910B8E159F0514F41192F8CFD7
:100960008981F801E60FF71F81838A81808358010E
:1009700084E5A80EB11C60E0F50180810E9422028E
:10098000E00EF11E4801F2E58F0E911C380180E562
:10099000680E711CC701801B910B1816190624F5EF
:1009A000F701C2907F01F4013080F301208087E0DD
:1009B000482E512CD12CB601042C02C07595679598
:1009C0000A94E2F761707727822D0E94220261E08B
:1009D000832D0E94220260E0832D0E942202F1E01A
:1009E0004F1A510840F7D6CF61E0F50180810F9092
:1009F0000F90DF91CF911F910F91FF90EF90DF90BB
:100A0000CF90BF90AF909F908F907F906F905F90AE
:100A10004F903F902F900C94220220911F03309111
:100A2000200312161306B4F48830910598F460314F
:100A300088F4E62FF0E0E458FF4F2491FC01E753DF
:100A4000FD4F208B41E0480F60E070E089EC92E0C0
:100A50000C9486040895CF92DF92EF92FF920F9349
:100A60001F93CF93DF9377FD23C0FC01EA5AFF4F1A
:100A70002081318162177307DCF4EB017C016B018B
:100A800083E0CC0CDD1C8A95E1F701E010E0F80171
:100A9000EC0DFD1DEE0DFF1D178620E0402FBE0161
:100AA000C7010E9486040F5F1F4F0930110579F7B7
:100AB000DF91CF911F910F91FF90EF90DF90CF903A
:100AC0000895CF92DF92EF92FF92CF936B017C015A
:100AD00097FF0AC0F094E094D094C094C11CD11C3C
:100AE000E11CF11CC1E001C0C0E0C701B60120E873
:100AF00036E948E950E00E945C0ACC23C9F0211590
:100B0000310541055105A1F480911F039091200307
:100B10001816190694F4E9EAF0E024912093E00213
:100B200048E060E070E089EC92E00E94860405C035
:100B3000622F87E090E00E940D05C701B60120E812
:100B400036E948E950E00E945C0A20E432E44FE0D4
:100B500050E00E945C0A6B017C01622F86E090E00D
:100B60000E940D05C701B60120EA36E841E050E0D9
:100B70000E945C0A6B017C01622F85E090E00E947C
:100B80000D05C701B60120E137E240E050E00E94C8
:100B90005C0A6B017C01622F84E090E00E940D05ED
:100BA000C701B60128EE33E040E050E00E945C0A45
:100BB0006B017C01622F83E090E00E940D05C7016C
:100BC000B60124E630E040E050E00E945C0A6B0190
:100BD0007C01622F82E090E00E940D05C701B60102
:100BE0002AE030E040E050E00E945C0AC62F622F0D
:100BF00081E090E00E940D056C2F80E090E00E9463
:100C00000D05CF91FF90EF90DF90CF900C947D0475
:100C10000E949A0C1F920F920FB60F9211242F93DD
:100C20003F934F935F936F937F938F939F93AF9374
:100C3000BF93EF93FF9380E292E00E948E01FF91B9
:100C4000EF91BF91AF919F918F917F916F915F9144
:100C50004F913F912F910F900FBE0F901F901895BD
:100C60001F920F920FB60F9211242F938F939F9381
:100C7000EF93FF93E0913002F09131028081E09197
:100C80003602F091370282FD12C0908180913902C4
:100C90008F5F8F7320913A02821751F0E0913902F1
:100CA000F0E0E05EFD4F958F8093390201C08081B6
:100CB000FF91EF919F918F912F910F900FBE0F9009
:100CC0001F9018951F920F920FB60F9211242F9319
:100CD0003F938F939F93AF93BF9380910002909126
:100CE0000102A0910202B09103023091FF0123E0C2
:100CF000230F2D3720F40196A11DB11D05C026E854
:100D0000230F0296A11DB11D2093FF0180930002C5
:100D100090930102A0930202B09303028091040217
:100D200090910502A0910602B09107020196A11DC3
:100D3000B11D8093040290930502A0930602B09324
:100D40000702BF91AF919F918F913F912F910F908B
:100D50000FBE0F901F9018951F920F920FB60F9213
:100D600011242F933F934F935F936F937F938F93B0
:100D70009F93AF93BF93EF93FF938091B900887FC8
:100D8000803609F49CC068F5883209F45BC090F4A1
:100D9000803109F454C038F4882309F4F6C088304F
:100DA00009F44DC0F6C0883109F44CC0803209F412
:100DB0005DC0EFC0803409F468C048F4803309F4A2
:100DC00055C0883309F0E5C08093DB01D8C0803579
:100DD00009F44FC0883509F45DC0883409F0D9C0E2
:100DE000D6C0883909F4C7C0A8F4883709F467C0A9
:100DF00038F4883609F463C0803709F460C0C9C08C
:100E0000883809F4B8C0803909F45FC0803809F027
:100E1000C0C05BC0803B09F486C038F4803A09F456
:100E200066C0883A09F47FC0B4C0803C09F4A7C00A
:100E3000883C09F4A4C0883B09F48AC0AAC0809108
:100E4000FE0110C09091FD018091FC01981770F592
:100E5000E091FD0181E08E0F8093FD01F0E0E4520E
:100E6000FE4F80818093BB0085EC86C08093DB01C0
:100E70008EC0E091FD0181E08E0F8093FD01809195
:100E8000BB00F0E0E452FE4F80839091FD01809121
:100E9000FC016EC0E091FD0181E08E0F8093FD01A9
:100EA0008091BB00F0E0E452FE4F80838091090204
:100EB00081116DC081E08093080284EA61C083E003
:100EC00080930A021092DA01CFCF8091DA0180324A
:100ED00008F051C0E091DA0181E08E0F8093DA01D1
:100EE0008091BB00F0E0E654FE4F8083BDCF85ECDF
:100EF0008093BC0010920A028091DA01803230F4B3
:100F0000E091DA01F0E0E654FE4F10826091DA01E0
:100F100070E0E0910F02F09110028AEB91E00995E8
:100F20001092DA0136C084E080930A021092B9016F
:100F30001092B801E0911102F0911202099580918E
:100F4000B801811105C081E08093B8011092980129
:100F5000E091B90181E08E0F8093B901F0E0E8568D
:100F6000FE4F80818093BB009091B9018091B801C0
:100F7000981708F479CF85E88093BC000AC085EC07
:100F80008093BC0010920A0204C01092DB010E9400
:100F9000CD02FF91EF91BF91AF919F918F917F9182
:100FA0006F915F914F913F912F910F900FBE0F90D6
:100FB0001F901895CF93DF93109223021092220274
:100FC00088EE93E0A0E0B0E08093240290932502A5
:100FD000A0932602B09327022AE031E03093210249
:100FE0002093200225EC30E030932D0220932C0238
:100FF00024EC30E030932F0220932E0220EC30E0DE
:10100000309331022093300221EC30E030933302F0
:101010002093320222EC30E03093350220933402E8
:1010200026EC30E0309337022093360210923902DA
:1010300010923A0210923B0210923C021092C002AF
:101040001092BF028093C1029093C202A093C30288
:10105000B093C4028CE191E09093BE028093BD02F4
:10106000CCE0D0E0D0931A03C09319038BE090E05A
:1010700090931C0380931B038AE090E090931E03DF
:1010800080931D0381E090E09093200380931F03E1
:101090008CE00E94C70080911B030E94C7008091D2
:1010A0001D030E94C70061E080911D030E9422027F
:1010B000D0931A03C0931903E9EDF2E0119283E093
:1010C000E931F807D9F7C0E0D0E080911F03909193
:1010D0002003C817D907ACF520E04FE0BE0189EC2A
:1010E00092E00E948604D7FD0EC080911F0390916C
:1010F0002003C817D9073CF427E04BE0BE0189EC78
:1011000092E00E94860420E049E0BE0189EC92E072
:101110000E948604BE0189EC92E00E942B05D7FD57
:101120000EC080911F0390912003C817D9073CF48B
:1011300020E04CE0BE0189EC92E00E9486042196FA
:10114000C4CFDF91CF910895789484B5826084BD37
:1011500084B5816084BD85B5826085BD85B58160BB
:1011600085BD80916E00816080936E001092810039
:1011700080918100826080938100809181008160F4
:1011800080938100809180008160809380008091B5
:10119000B10084608093B1008091B0008160809341
:1011A000B00080917A00846080937A0080917A0008
:1011B000826080937A0080917A00816080937A00C7
:1011C00080917A00806880937A001092C100E0914B
:1011D0003002F091310282E08083E0912C02F091A4
:1011E0002D021082E0912E02F0912F0283E3808382
:1011F00010923802E0913402F091350286E080834B
:10120000E0913202F0913302808180618083E0912D
:101210003202F0913302808188608083E091320253
:10122000F0913302808180688083E0913202F091F6
:10123000330280818F7D80836CE170E080E090E0FC
:101240000E94D00BEC01009741F018826AE271E035
:101250000E94A80C4BE150E002C040E050E0BE010B
:1012600080E292E00E941C0142E050E066E471E0FE
:1012700080E292E00E941C01CE010E94380B219A6C
:10128000299880911F03909120031816190644F4A1
:1012900021E04CE060E070E089EC92E00E9486047E
:1012A00080911F03909120031816190644F428E03A
:1012B0004AE060E070E089EC92E00E94860460E021
:1012C00070E089EC92E00E942B05C0E2C093BA0066
:1012D00086EE90E0909312028093110282EF90E0EC
:1012E0009093100280930F0210920E0210920D0242
:1012F00010920C0210920B0210920A0281E080936D
:1013000009021092080261E082E10E94220261E07B
:1013100083E10E9422028091B9008E7F8093B90000
:101320008091B9008D7F8093B90088E48093B800E4
:1013300085E48093BC00C093B80084E593E090936B
:10134000140280931302C0E06C2F87E090E00E94AB
:101350000D05D1E0DC0F6D2F86E090E00E940D05B9
:1013600082E0F82EFC0E6F2D85E090E00E940D05C6
:1013700013E01C0F612F84E090E00E940D056C2F9C
:1013800083E090E00E940D056D2F82E090E00E94C6
:101390000D056F2D81E090E00E940D05612F80E02A
:1013A00090E00E940D0564E670E080E090E00E940D
:1013B0009302CD2FDD3041F660E070E089EC92E0E1
:1013C0000E942B05299A68EE73E080E090E00E946D
:1013D0009302299880911F028823A1F1C0901B02DB
:1013E000D0901C02E0901D02F0901E028091150228
:1013F00090911602A0911702B0911802C816D90652
:10140000EA06FB0689F0C701B6010E9461058091DA
:10141000190290911A02092E000CAA0BBB0BC80EE0
:10142000D91EEA1EFB1EE2CF6091150270911602D2
:1014300080911702909118020E9461050E947D041C
:1014400010921F020E941802C5CF2F923F924F9216
:101450005F926F927F928F929F92AF92BF92CF9244
:10146000DF92EF92FF920F931F93CF93DF93CDB74D
:10147000DEB7CA1BDB0B0FB6F894DEBF0FBECDBFC5
:1014800009942A88398848885F846E847D848C8496
:101490009B84AA84B984C884DF80EE80FD800C819F
:1014A0001B81AA81B981CE0FD11D0FB6F894DEBF82
:1014B0000FBECDBFED010895052E97FB1EF40094DD
:1014C0000E94730A57FD07D00E947B0A07FC03D0D5
:1014D0004EF40C94730A50954095309521953F4FEA
:1014E0004F4F5F4F089590958095709561957F4F10
:1014F0008F4F9F4F0895A1E21A2EAA1BBB1BFD011F
:101500000DC0AA1FBB1FEE1FFF1FA217B307E407E2
:10151000F50720F0A21BB30BE40BF50B661F771F3A
:10152000881F991F1A9469F760957095809590951A
:101530009B01AC01BD01CF010895EE0FFF1F059087
:10154000F491E02D0994CF93DF938230910510F44C
:1015500082E090E0E0912303F091240320E030E06A
:10156000C0E0D0E0309711F1408151814817590710
:10157000C0F04817590761F482819381209719F0D0
:101580009B838A832BC0909324038093230326C0DC
:101590002115310519F04217530718F49A01BE01BD
:1015A000DF01EF010280F381E02DDCCF2115310551
:1015B00009F1281B390B2430310590F412968D91D6
:1015C0009C9113976115710521F0FB019383828330
:1015D00004C09093240380932303FD01329644C0FA
:1015E000FD01E20FF31F81939193225031092D9356
:1015F0003C933AC02091210330912203232B41F4E4
:1016000020910201309103013093220320932103A2
:1016100020910001309101012115310541F42DB7D0
:101620003EB74091040150910501241B350BE09118
:101630002103F0912203E217F307A0F42E1B3F0BC6
:101640002817390778F0AC014E5F5F4F2417350734
:1016500048F04E0F5F1F5093220340932103819364
:10166000919302C0E0E0F0E0CF01DF91CF910895C7
:101670000F931F93CF93DF93009709F48CC0FC0165
:1016800032971382128200912303109124030115D3
:10169000110581F420813181820F931F2091210354
:1016A000309122032817390779F5F0932203E0934C
:1016B000210371C0D80140E050E0AE17BF0750F4DD
:1016C00012962D913C911397AD012115310509F129
:1016D000D901F3CF9D01DA013383228360817181C7
:1016E000860F971F8217930769F4EC0128813981CF
:1016F000260F371F2E5F3F4F318320838A819B81C6
:1017000093838283452B29F4F0932403E0932303EE
:1017100042C01396FC93EE931297ED0149915991B3
:101720009E01240F351FE217F30771F48081918128
:10173000840F951F029611969C938E9382819381BC
:1017400013969C938E931297E0E0F0E0D8011296E6
:101750008D919C911397009719F0F8018C01F6CFA9
:101760008D919C9198012E5F3F4F820F931F209186
:101770002103309122032817390769F4309729F49F
:10178000109224031092230302C01382128210933A
:10179000220300932103DF91CF911F910F910895B0
:1017A000A0E0B0E0E6EDFBE00C94290AEC01009724
:1017B00021F4CB010E94A30AB8C0FC01E60FF71F79
:1017C0009C0122503109E217F30708F4ACC0D9019B
:1017D0000D911C91119706171707B0F005301105F0
:1017E00008F49FC0C80104978617970708F499C0AA
:1017F00002501109061B170B019311936D937C93F3
:10180000CF010E94380B8DC05B01A01AB10A4C01B8
:10181000800E911EA0912303B091240340E050E07C
:10182000E12CF12C109709F44AC0A815B905D1F59F
:101830006D907C901197630182E0C80ED11CCA1490
:10184000DB0480F1A3014A195B096A0182E0C80E3A
:10185000D11C1296BC9012971396AC91B5E0CB16A2
:10186000D10440F0B282A38351834083D9016D93A8
:101870007C930AC00E5F1F4FC301800F911FF901B7
:1018800091838083EB2DFA2FE114F10431F0D7011D
:101890001396FC93EE93129744C0F0932403E093C5
:1018A00023033FC08D919C9111974817590708F465
:1018B000AC017D0112960D90BC91A02DB3CF80910B
:1018C00021039091220388159905E1F446175707E3
:1018D000C8F48091000190910101009741F48DB707
:1018E0009EB74091040150910501841B950BE817A8
:1018F000F907C8F4F0932203E0932103F9017183FF
:1019000060830FC0CB010E94A30A7C01009759F0AD
:10191000A801BE010E949F0CCE010E94380BC70196
:1019200004C0CE0102C080E090E0CDB7DEB7EEE0AB
:101930000C94450A81E090E0F8940C94AF0CFB0104
:10194000DC0102C001900D9241505040D8F708953B
:10195000FB01DC0101900D920020E1F70895F8945D
:02196000FFCFB7
:1019620000002503800000000000AF011C014701B8
:10197200F601780156016A01000000003F032B03C3
:101982005103FF0223030F030003736C6F7443724E
:101992006564697473446973706C6179536C6176C0
:0A19A200652E696E6F000D0A00004B
:00000001FF
