:100000000C946D000C9495000C9495000C94950044
:100010000C94CF090C9465090C9495000C949500F0
:100020000C9495000C9495000C9495000C949500FC
:100030000C9495000C9495000C9495000C949500EC
:100040000C9462100C9495000C940F0F0C94E90E14
:100050000C9495000C9495000C9495000C949500CC
:100060000C941B020C949500556E6B6E6F776E208E
:100070006572726F7220617420616464726573735B
:10008000000D0A003A200000000000240027002A8A
:100090000000000000250028002B000404040404D4
:1000A0000404040202020202020303030303030125
:1000B00002040810204080010204081020010204FC
:1000C00008102000000008000201000003040700DF
:1000D0000000000000000000EF1A11241FBECFEF47
:1000E000D8E0DEBFCDBF15E0A0E0B1E0EEE7F9E477
:1000F00002C005900D92AE31B107D9F727E0AEE10D
:10010000B5E001C01D92AA37B207E1F710E0CDE6D5
:10011000D0E004C02197FE010E94FF1FCC36D1071A
:10012000C9F70E94AC100C94BD240C940000DC01B3
:10013000ED91FC910684F785E02D41E0099581E081
:1001400090E008950895089585ED8093BC00809116
:10015000BC0084FDFCCF109232060895409140050A
:10016000262F30E0240F311D21323105DCF420919F
:1001700032062430C9F4FC0180E090E0861758F480
:10018000309140052191DC01A25EBA4FA30FB11D51
:100190002C930196F3CF80914005680F6093400542
:1001A00080E0089581E0089582E00895089581E057
:1001B00090E030916A0520916905321710F480E0D3
:1001C00090E0919581959109089580916A059091AB
:1001D0006905891730F48F5F80936A0580E090E0AD
:1001E00008958FEF9FEF08958091690590E0209129
:1001F0006A05821B91090895CF92DF92EF92FF92D8
:100200000F931F93CF93DF937C01262F972F8A01A3
:1002100080913306882391F0C62FD72F6E01C40E2C
:10022000D51ECC15DD0571F06991D701ED91FC91DA
:100230000190F081E02DC7010995F3CF642F822F43
:100240000E94AE00C801DF91CF911F910F91FF90E6
:10025000EF90DF90CF900895CF93DF931F92CDB7AB
:10026000DEB76983209133062223D1F02091560610
:10027000203240F021E030E0FC013383228380E033
:1002800090E015C080913406E82FF0E0EB5CF94F68
:10029000998190838F5F809334068093560605C0C2
:1002A00061E0CE0101960E94AE0081E090E00F90E7
:1002B000DF91CF910895089580E090E00895DC01EA
:1002C000ED91FC910684F785E02D40E009940F93B1
:1002D0001F93CF93DF93EC01423018F08C8188603C
:1002E0008C834F836887222329F0413019F48C8155
:1002F00084608C8364E670E080E090E00E942810C7
:100300006C8164FD31C0E881F9810684F785E02DB8
:1003100042E063E0CE0109958BE496E40197F1F7A2
:10032000E881F9810684F785E02D42E063E0CE01A3
:10033000099503E512E0C8010197F1F7E881F98119
:100340000684F785E02D42E063E0CE010995C801FF
:100350000197F1F7E881F9810684F785E02D42E005
:1003600062E0CE01099517C06062CE010E945F0174
:100370008BE496E40197F1F76C816062CE010E94F4
:100380005F0103E512E0C8010197F1F76C8160623B
:10039000CE010E945F01C8010197F1F76C81606294
:1003A000CE010E945F018BEE90E00197F1F784E0AF
:1003B0008D836CE0CE010E945F0161E0CE010E945E
:1003C0005F018BE39FE10197F1F782E08E8366E0A6
:1003D000CE010E945F01E881F9810484F585E02D5A
:1003E0006FEFCE01DF91CF911F910F910994FC0126
:1003F00023812223B9F091819095692360838281C2
:1004000091E0909333068093550610923406109233
:10041000560684EF96E00E942C010E94AD0A282F18
:1004200030E002C020E030E081E090E0232B11F0CA
:1004300080E090E008951F920F920FB60F92112462
:100440002F933F934F935F936F937F938F939F93DC
:10045000AF93BF93EF93FF938091B900887F80366D
:1004600009F49CC068F5883209F45BC090F48031CF
:1004700009F454C038F4882309F4F6C0883009F42C
:100480004DC0F6C0883109F44CC0803209F45DC01B
:10049000EFC0803409F468C048F4803309F455C0D3
:1004A000883309F0E5C080933006D8C0803509F460
:1004B0004FC0883509F45DC0883409F0D9C0D6C072
:1004C000883909F4C7C0A8F4883709F467C038F43C
:1004D000883609F463C0803709F460C0C9C0883821
:1004E00009F4B8C0803909F45FC0803809F0C0C091
:1004F0005BC0803B09F486C038F4803A09F466C0DA
:10050000883A09F47FC0B4C0803C09F4A7C0883C95
:1005100009F4A4C0883B09F48AC0AAC080910D06E2
:1005200010C090912F0680912E06981770F5E091DB
:100530002F0681E08E0F80932F06F0E0E25FF94FE7
:1005400080818093BB0085EC86C0809330068EC08E
:10055000E0912F0681E08E0F80932F068091BB00E3
:10056000F0E0E25FF94F808390912F0680912E0694
:100570006EC0E0912F0681E08E0F80932F06809150
:10058000BB00F0E0E25FF94F80838091310681117A
:100590006DC081E080930C0684EA61C083E08093A3
:1005A000320610926405CFCF80916405803208F046
:1005B00051C0E091640581E08E0F809364058091C5
:1005C000BB00F0E0EC5BFA4F8083BDCF85EC8093FD
:1005D000BC001092320680916405803230F4E091C4
:1005E0006405F0E0EC5BFA4F10826091640570E006
:1005F000E0914205F091430584E495E0099510925D
:10060000640536C084E08093320610924105109252
:100610004005E0913E05F0913F0509958091400528
:10062000811105C081E08093400510921E05E09184
:10063000410581E08E0F80934105F0E0E25EFA4FC4
:1006400080818093BB00909141058091400598176F
:1006500008F479CF85E88093BC000AC085EC8093CC
:10066000BC001092320604C0109230060E94A40012
:10067000FF91EF91BF91AF919F918F917F916F917A
:100680005F914F913F912F910F900FBE0F901F9050
:1006900018951092320681E08093310610920C0674
:1006A00061E082E10E94410F61E083E10E94410F1D
:1006B000E9EBF0E080818E7F808380818D7F808375
:1006C00088E48093B80085E48093BC000895FF928D
:1006D0000F931F93CF93DF93EC01162F042FF22E6D
:1006E0008B85888B10926A051092690510923406EA
:1006F000109256060E944903888991E09093330630
:100700008093550610923406109256060E94AD0A48
:1007100091E0811190E0998B992329F084EF96E084
:100720000E94E5008E878989882339F01F861C8204
:1007300060E0CE010E960E94F7012F2D402F612F11
:10074000CE01DF91CF911F910F91FF900C94670123
:100750002F923F924F925F926F927F928F929F92D1
:10076000AF92BF92CF92DF92EF92FF920F931F93BF
:10077000CF93DF9300D0CDB7DEB78C0149832A83B6
:10078000660F771FF801EA5AFF4FE080F180EE0C08
:10079000FF1CF801CF01801B910B8E159F0514F4EF
:1007A0001192F8CF8981F801E60FF71F81838A81C2
:1007B0008083580184E5A80EB11C60E0F5018081BA
:1007C0000E94410FE00EF11E4801F2E58F0E911CD0
:1007D000380180E5680E711CC701801B910B18164B
:1007E000190624F5F701C2907F01F4013080F3016E
:1007F000208087E0482E512CD12CB601042C02C059
:10080000759567950A94E2F761707727822D0E94AB
:10081000410F61E0832D0E94410F60E0832D0E9413
:10082000410FF1E04F1A510840F7D6CF61E0F501D2
:1008300080810F900F90DF91CF911F910F91FF90CA
:10084000EF90DF90CF90BF90AF909F908F907F9070
:100850006F905F904F903F902F900C94410FCF92EC
:10086000DF92EF92FF920F931F93CF93DF938C0150
:100870007B016B0183E0CC0CDD1C8A95E1F7C1E0C4
:10088000D0E0FE01EC0DFD1DE00FF11F178620E00A
:100890004C2FB701C8010E94A8032196C930D10589
:1008A00081F7DF91CF911F910F91FF90EF90DF9033
:1008B000CF900895CF92DF92EF92FF920F931F9304
:1008C000CF93DF93CDB7DEB728970FB6F894DEBF8E
:1008D0000FBECDBF8DE9E82E85E0F82E84EA92E0C8
:1008E000F7019183808387EB92E0938382838AEC84
:1008F00092E0958384838DED92E09783868380EFE9
:1009000092E09187808783E093E09387828786E1F6
:1009100093E09587848789E293E0978786878CE3C5
:1009200093E0918B808B8FE493E0938B828B82E6B4
:1009300093E0958B848B85E793E0978B868B8EE590
:1009400094E0918F808F938F828F958F848F6AE749
:1009500073E084EA92E00E9415226DE873E087EB71
:1009600092E00E94152260EA73E08AEC92E00E9415
:10097000152263EB73E0F701868197810E941522AF
:1009800066EC73E0F701808591850E94152269ED80
:1009900073E0F701828593850E9415226CEE73E067
:1009A000F701848595850E9415226FEF73E0F701AA
:1009B000868597850E94152262E174E0F70180899F
:1009C00091890E94152265E274E0F701828993897A
:1009D0000E94152268E374E0F701848995890E94DA
:1009E00015226091910570919205809193059091E7
:1009F00094052AE08E010F5F1F4FA8010E946D1C15
:100A0000F80101900020E9F73197AF01401B510B2D
:100A100092E1C92ED12CC601841B950BF7012081D0
:100A20003181B801820F931F0E94012260918D05D0
:100A300070918E0580918F05909190052AE0A80114
:100A40000E946D1CF80101900020E9F73197AF0179
:100A5000401B510BC601841B950BF701228133818A
:100A6000B801820F931F0E94012260918905709145
:100A70008A0580918B0590918C052AE0A8010E943F
:100A80006D1CF80101900020E9F73197AF01401B80
:100A9000510BC601841B950BF70124813581B801E8
:100AA000820F931F0E940122609185057091860537
:100AB00080918705909188052AE0A8010E946D1C0D
:100AC000F80101900020E9F73197AF01401B510B6D
:100AD000C601841B950BF70126813781B801820F6F
:100AE000931F0E9401224AE0B801809183059091F2
:100AF00084050E94621CF80101900020E9F73197FB
:100B0000AF01401B510BC601841B950BF7012085DB
:100B10003185B801820F931F0E94012260917F05E9
:100B20007091800580918105909182052AE0A8014D
:100B30000E946D1CF80101900020E9F73197AF0188
:100B4000401B510BC601841B950BF7012285338591
:100B5000B801820F931F0E9401224AE0B8018091E0
:100B60007D0590917E050E94621CF8010190002095
:100B7000E9F73197AF01401B510BC601841B950B60
:100B8000F70124853585B801820F931F0E94012249
:100B90004AE0B80180917B0590917C050E94621C1F
:100BA000F80101900020E9F73197AF01401B510B8C
:100BB000C601841B950BF70126853785B801820F86
:100BC000931F0E94012260916505709166058091D6
:100BD0006705909168052AE0A8010E946D1CF80144
:100BE00001900020E9F73197AF01401B510BC6017E
:100BF000841B950BF70120893189B801820F931F5F
:100C00000E9401226091990570919A0580919B053F
:100C100090919C052AE0A8010E946D1CF8010190AA
:100C20000020E9F73197AF01401B510BC601841B2F
:100C3000950BF70122893389B801820F931F0E9417
:100C400001224AE0B8018091BB059091BC050E9449
:100C5000621CF80101900020E9F73197AF01401BB9
:100C6000510BC41AD50AF70184899589B8018C0DF6
:100C70009D1D0E94012228960FB6F894DEBF0FBE7C
:100C8000CDBFDF91CF911F910F91FF90EF90DF903B
:100C9000CF9008958BE494E00C94D40BCF93DF9322
:100CA000CDB7DEB764970FB6F894DEBF0FBECDBFE9
:100CB0008091C1059091C205009781F58091BB0597
:100CC0009091BC054AE0BE01655F7F4F01960E948E
:100CD000621C60E08FE00E94E60B8AE594E00E94CF
:100CE000D40B60E08FE00E94E60BCE010B960E94D1
:100CF000D40B8091BB059091BC054AE0BE016F5FAB
:100D00007F4F01970E94621C61E08FE00E94E60B1A
:100D10008AE594E00E94D40B61E016C00197D9F4F3
:100D20008091BB059091BC054AE0BE016F5F7F4F8B
:100D300001970E94621C60E08FE00E94E60B8AE54A
:100D400094E00E94D40B60E08FE00E94E60BCE019D
:100D500001960E94D40B64E080E00E94E60B0E94A2
:100D60004A0664E080E00E94E60B4AE0BE016F5F45
:100D70007F4F8091BB059091BC050E94621C80E66C
:100D800094E00E94D40BCE0101960E94D40B64968D
:100D90000FB6F894DEBF0FBECDBFDF91CF9108959F
:100DA000CF93DF93CDB7DEB764970FB6F894DEBF6D
:100DB0000FBECDBF8091C1059091C205009781F50E
:100DC0008091BD059091BE054AE0BE01655F7F4FF1
:100DD00005960E94621C60E08FE00E94E60B8AE5A7
:100DE00094E00E94D40B60E08FE00E94E60BCE01FD
:100DF0000B960E94D40B8091BD059091BE054AE0F0
:100E0000BE016F5F7F4F05970E94621C61E08FE01B
:100E10000E94E60B8AE594E00E94D40B61E016C0C4
:100E20000197D9F48091BD059091BE054AE0BE01BD
:100E30006F5F7F4F05970E94621C60E08FE00E9409
:100E4000E60B8AE594E00E94D40B60E08FE00E94FC
:100E5000E60BCE0101960E94D40B64E080E00E9474
:100E6000E60B0E944A0664E080E00E94E60B4AE03E
:100E7000BE016F5F7F4F8091BD059091BE050E94BE
:100E8000621C87E694E00E94D40BCE0101960E947A
:100E9000D40B64960FB6F894DEBF0FBECDBFDF91C2
:100EA000CF91089540E050E0BA0180E090E00E94C8
:100EB000F81D40E050E0BA0184E090E00E94F81D87
:100EC00040E050E0BA0188E090E00E94F81D60E048
:100ED00070E082E190E00E94001E60E070E086E138
:100EE00090E00E94001E60E070E088E190E00E94C7
:100EF000001E60E070E082E290E00E94001E60E070
:100F000070E084E290E00E94001E409165055091DF
:100F1000660560916705709168054F5F5F4F6F4F81
:100F20007F4F409365055093660560936705709306
:100F3000680584E390E00E94F81D44EF51E060E012
:100F400070E082E490E00E94F81D40E050E0BA01B9
:100F500088E390E00C94F81D10927A0510926B05CE
:100F600085E090E0A0E0B0E08093BD059093BE05E1
:100F7000A093BF05B093C005109276051092770537
:100F800010927805109279051092750510927405EB
:100F900010927005109271051092720510927305EF
:100FA00010926F0510926E0510926D0510926C05EF
:100FB00008950F931F93CF93DF938B01EA01BC0138
:100FC00089E00E94C90FB8018AE00E94C90FBE01E2
:100FD00083E0DF91CF911F910F910C94C90F40E0F6
:100FE00050E060E070E080E090E00E94D90786E089
:100FF0008093020108954FEF50E060E070E080E0E0
:1010000090E00E94D90783E08093020108950F9336
:101010001F93CF93DF9300D000D000D0CDB7DEB7C1
:101020002091C3058091950590919605A091970513
:10103000B091980522FF1AC00091990510919A0568
:1010400020919B0530919C05AC01BD01401B510BCB
:10105000620B730B8A019B0177FF0AC030952095C4
:10106000109501951F4F2F4F3F4F02C001E010E038
:1010700021E02093330620E1209355061092340698
:1010800010925606BC01CD017727882799270E9428
:101090008E0A6091960570E080E090E00E948E0AD2
:1010A0006091970570E080E090E00E948E0A809148
:1010B000950590919605A0919705B09198056B2F95
:1010C00077278827992784EF96E00E942C0140918A
:1010D00095055091960560919705709198058091BE
:1010E000990590919A05A0919B05B0919C05841754
:1010F0009507A607B7071CF4119501951109602FF4
:1011000084EF96E00E942C01612F84EF96E00E940C
:101110002C018091990590919A05A0919B05B09121
:101120009C05BC01CD017727882799270E948E0A4C
:1011300060919A0570E080E090E00E948E0A6091D4
:101140009B0570E080E090E00E948E0A80919905F6
:1011500090919A05A0919B05B0919C056B2F7727E4
:101160008827992784EF96E00E942C010E94AD0AFF
:101170008430A1F41A8219821C821B821E821D8275
:1011800068E670E0CE0101960E94860ECE010196BF
:101190000E949B0A89819A810E949A2026960FB606
:1011A000F894DEBF0FBECDBFDF91CF911F910F919D
:1011B00008950E94FB0780916901882341F02B9AD2
:1011C00064E670E080E090E00E9428102B980E9476
:1011D000EF074091910550919205609193057091B0
:1011E000940580E090E00E94F81D40918D0550919B
:1011F0008E0560918F057091900584E090E00E94CB
:10120000F81D4091890550918A0560918B05709178
:101210008C0588E090E00E94F81D60918505709132
:10122000860582E190E00E94001E60918305709126
:10123000840586E190E00E94001E60917F05709118
:10124000800588E190E00E94001E60917D0570910C
:101250007E0582E290E00E94001E60917B05709105
:101260007C0584E290E00E94001E4091650550914B
:10127000660560916705709168054F5F5F4F6F4F1E
:101280007F4F4093650550936605609367057093A3
:10129000680584E390E00E94F81D40919905509103
:1012A0009A0560919B0570919C0582E490E00E94F4
:1012B000F81D4091BB055091BC05052E000C660B36
:1012C000770B86E490E00C94F81D1F920F920FB6F6
:1012D0000F9211248F939F9389B1909101018927D7
:1012E00099B190930101909101019E7F909301012A
:1012F000909101019D7F9093010190910101977F51
:1013000090930101909101019F7E90930101909132
:1013100001019F7D90930101909101019F7B90932A
:101320000101909101019F779093010182FF30C0EC
:101330008091010182FF08C08FE99FE00197F1F7DA
:1013400000C0000089B124C08FE99FE00197F1F748
:1013500000C000004A991CC08091C30581FF08C0ED
:101360008091C30581608093C3051092C40510C0AD
:101370008091C30580FF0CC08091C30582FF05C02A
:101380008091C3058B7F8093C30581E08093C40562
:101390009F918F910F900FBE0F901F9018951F92E5
:1013A0000F920FB60F9211248F939F93EF93FF9399
:1013B00086B190910001892796B190930001909198
:1013C00000019E7F90930001909100019F7E909379
:1013D0000001909100019F7D909300019091000188
:1013E0009F7B9093000181FF17C09091000191FFB6
:1013F00008C0EFE9FFE03197F1F700C0000096B1B7
:101400000BC0EFE9FFE03197F1F700C00000319920
:1014100003C094E09093C40582FF17C0909100012F
:1014200092FF08C0EFE9FFE03197F1F700C000003C
:1014300096B10BC0EFE9FFE03197F1F700C0000073
:10144000329903C095E09093C40583FF17C0809143
:10145000000183FF08C08FE99FE00197F1F700C00A
:10146000000086B10BC0EFE9FFE03197F1F700C053
:101470000000339903C083E08093C405FF91EF918E
:101480009F918F910F900FBE0F901F90189540E085
:1014900050E06FEF70E080E090E00E94D90782E0BA
:1014A0008093020180916901882361F02B9A8091D9
:1014B000C30582FD06C064E670E080E090E00E9413
:1014C00028102B980C94EF070F931F93CF93DF9363
:1014D00000D000D000D0CDB7DEB70DE915E0F8019F
:1014E000619171918F01CE0101960E94AE0ECE01E5
:1014F00001960E949B0A89819A810E949A20F5E0B8
:10150000033B1F0761F726960FB6F894DEBF0FBEA8
:10151000CDBFDF91CF911F910F91089584EF96E099
:101520000C942C01FC01448155816081718187E517
:1015300096E00C94A00CCF93DF930E94920AEC01EA
:1015400042E050E067E175E087E596E00E94A00C7C
:101550008C0F9D1FDF91CF91089520915606909199
:101560005506213208F04AC0809132068111FCCF25
:1015700032E03093320631E0309331063FEF309362
:10158000300610922F0620932E06A5E3B6E04EE01B
:1015900056E0FA013E2F341B321718F43D91319377
:1015A000F9CF10920D0620910D06990F922B909372
:1015B0000D0690910C06913061F410920C069091FA
:1015C0000D069093BB009091BC0093FDF8CF95EC75
:1015D00001C095EE9093BC00909132069230E1F3F9
:1015E000909130069F3F79F080913006803241F033
:1015F00080913006803331F084E005C081E003C083
:1016000082E001C083E010923406109256061092D8
:101610003306089597FD11C0209156073091570762
:101620008217930754F46031710538F4262F4AE08D
:10163000BC0180E097E00C94A80308954F925F925C
:101640006F927F928F929F92AF92BF92CF92DF92D2
:10165000EF92FF920F931F93CF93DF938B019C0127
:10166000EA0160E472E48FE090E0A90198010E9431
:101670008C1EEAEBF0E0649186EA90E0FC01749144
:10168000E72FF0E0EE0FFF1FEF56FF4FA591B4914B
:10169000FC018491E82FF0E0EE0FFF1FE957FF4FA8
:1016A00005911491F8018081862B80838FB7F8947F
:1016B000C0900806D0900906E0900A06F0900B064C
:1016C0008FBF49015A01B694A794979487948401D7
:1016D000C401880F991F880F991F05972819390988
:1016E000A901440F551F440F551F455051094E0184
:1016F000A12CB12C762F7095EFB7F8944090080686
:101700005090090660900A0670900B06EFBF4C18C7
:101710005D086E087F08481459046A047B0498F435
:10172000EC91E62BEC930230110518F0FC01319797
:10173000F1F7EC91E723EC9322303105E8F2FA015E
:101740003197F1F7D9CFDF91CF911F910F91FF9092
:10175000EF90DF90CF90BF90AF909F908F907F9051
:101760006F905F904F900895242F97FD1CC040917B
:1017700056075091570784179507ACF468307105E8
:1017800090F4FC0133E0EE0FFF1F3A95E1F7E050D3
:10179000F94FE60FF71F208B41E0460FBC0180E0B8
:1017A00097E00C94A8030895009769F0FC0101905C
:1017B0000020E9F73197AF01481B590BBC0188E5C0
:1017C00097E00C94A00C80E090E00895CF93DF9315
:1017D000CDB7DEB728970FB6F894DEBF0FBECDBFEA
:1017E0001D8290E49E8324E12F8324E528871982BB
:1017F0009A8390E19B8390E59C8390915F076917A2
:1018000010F06FEF690F40916007262F30E0FE0166
:10181000E20FF31F403121F4943011F4918101C0A3
:101820009581682F690F606888E597E028960FB664
:10183000F894DEBF0FBECDBFDF91CF910C945F0156
:10184000CF92DF92EF92FF920F931F93CF93DF938C
:10185000CDB7DEB765970FB6F894DEBF0FBECDBF2C
:101860008C0119821A821B821C82FE01359681E14D
:10187000DF011D928A95E9F76AE175E0CE010196D4
:101880000E940A22000F111FF801EA51FA4F6081ED
:101890007181CE0101960E940A22F801E451FA4FAB
:1018A000E080F180F801E651FA4FC080D180F80164
:1018B000E851FA4F0081118160E080E00E94E60B60
:1018C0000E944A0661E080E00E94E60B0E944A0600
:1018D00062E080E00E94E60B0E944A0663E080E03E
:1018E0000E94E60B0E944A0660E080E00E94E60B40
:1018F000CE0101960E94D40B61E080E00E94E60BCD
:10190000C8010E94D40B62E080E00E94E60BC60191
:101910000E94D40B63E080E00E94E60BC7010E94A6
:10192000D40B65960FB6F894DEBF0FBECDBFDF9126
:10193000CF911F910F91FF90EF90DF90CF9008957E
:10194000CF92DF92EF92FF920F931F93CF93DF938B
:101950006C017A018B01C0E0D0E0CE15DF0589F083
:10196000D8016D918D01D601ED91FC910190F0812E
:10197000E02DC6010995892B11F47E0102C0219644
:10198000ECCFC701DF91CF911F910F91FF90EF90A6
:10199000DF90CF900895FC01538D448D252F30E0CA
:1019A000842F90E0821B930B541710F0CF9608956C
:1019B00001970895FC01918D828D981761F0828DB9
:1019C000DF01A80FB11D5D968C91928D9F5F9F7373
:1019D000928F90E008958FEF9FEF0895FC01918D15
:1019E000828D981731F0828DE80FF11D858D90E082
:1019F00008958FEF9FEF0895FC01918D228D892F1F
:101A000090E0805C9F4F821B91098F739927089506
:101A100087E596E00E94FC0C21E0892B09F420E088
:101A2000822F0895FC01848DDF01A80FB11DA35AF8
:101A3000BF4F2C91848D90E001968F739927848FEE
:101A4000A689B7892C93A089B1898C9180648C93E5
:101A5000938D848D981306C00288F389E02D8081D0
:101A60008F7D80830895EF92FF920F931F93CF9302
:101A7000DF93EC0181E0888F9B8D8C8D981305C0DE
:101A8000E889F989808185FD24C0F62E0B8D10E050
:101A90000F5F1F4F0F731127E02E8C8DE8120CC0C3
:101AA0000FB607FCFACFE889F989808185FFF5CF69
:101AB000CE010E94120DF1CF8B8DFE01E80FF11DBA
:101AC000E35AFF4FF0820B8FEA89FB8980818062A5
:101AD00007C0EE89FF896083E889F9898081806485
:101AE000808381E090E0DF91CF911F910F91FF9073
:101AF000EF900895CF93DF93EC01888D8823C9F090
:101B0000EA89FB89808185FD05C0A889B9898C9106
:101B100086FD0FC00FB607FCF5CF808185FFF2CFA1
:101B2000A889B9898C9185FFEDCFCE010E94120D55
:101B3000E7CFDF91CF91089580E090E0892B29F0E5
:101B40000E94080D81110C94000008953FB7F8948D
:101B50008091720790917307A0917407B0917507F7
:101B600026B5A89B05C02F3F19F00196A11DB11DF8
:101B70003FBFBA2FA92F982F8827820F911DA11D33
:101B8000B11DBC01CD0142E0660F771F881F991F70
:101B90004A95D1F7089521E001C0220F6A95EAF72E
:101BA000DC011C962C931C971A965C934E93199704
:101BB000ED91FC910484F585E02D60E009940E948C
:101BC000FC210F931F93CF93DF93EC0188819981C0
:101BD000009729F02A813B812617370788F48B016B
:101BE0006F5F7F4F0E943221009761F09983888355
:101BF0001B830A832C813D81232B11F4FC0110826D
:101C000081E001C080E0DF91CF911F910F91089595
:101C1000CF93DF93EC0188819981009711F00E94A6
:101C20009A20198218821D821C821B821A82DF91DF
:101C3000CF910895EF92FF920F931F93CF938C0152
:101C4000FC01759684E0C0E060FF02C09081C92B62
:101C50006695815031968111F7CF413011F4F8012A
:101C60004489F8018585C82BC42B7801FEE0EF0E6E
:101C7000F11CF80162896C2BC7010E94F701F80181
:101C8000628960956C23C701CF911F910F91FF90DE
:101C9000EF900C94F7010F931F93CF93DF93062FD0
:101CA0000F70423019F440E0602F10C0142F262F1F
:101CB000EC0130E0B90184E0759567958A95E1F70C
:101CC000CE010E941A0E412F602FCE01DF91CF91DD
:101CD0001F910F910C941A0EFC0184858823A9F0A2
:101CE000218532852115310519F4611106C007C01F
:101CF0002130310521F4611102C0858701C01586AC
:101D00006585CF010E960C94F7010895EF92FF922E
:101D10000F931F93CF93DF93EC018B016115710536
:101D200051F0CB010E94591C7C01BC01CE010E94E4
:101D3000E10D811104C0CE010E94080E07C0FD8292
:101D4000EC82B801888199810E94521CCE01DF91FA
:101D5000CF911F910F91FF90EF900895EF92FF9216
:101D60000F931F93CF93DF93EC01198218821B828C
:101D70001A821D821C826115710521F18B01FB0104
:101D800001900020E9F731977F01E61AF70AB701C1
:101D90000E94E10D811109C0CE01DF91CF911F9109
:101DA0000F91FF90EF900C94080EFD82EC82B80129
:101DB00088819981DF91CF911F910F91FF90EF90D2
:101DC0000C941522DF91CF911F910F91FF90EF900E
:101DD00008951F920F920FB60F9211242F933F93E5
:101DE0004F935F936F937F938F939F93AF93BF9323
:101DF000EF93FF9387E596E00E94120DFF91EF911C
:101E0000BF91AF919F918F917F916F915F914F9112
:101E10003F912F910F900FBE0F901F9018951F921A
:101E20000F920FB60F9211242F938F939F93EF93DE
:101E3000FF93E0916706F09168068081E0916D065E
:101E4000F0916E0682FD12C09081809170068F5FC6
:101E50008F7320917106821751F0E0917006F0E0C7
:101E6000E95AF94F958F8093700601C08081FF91E8
:101E7000EF919F918F912F910F900FBE0F901F9018
:101E8000189590E0FC01ED53FF4F3491FC01E155B2
:101E9000FF4F2491FC01E556FF4FE491EE2309F436
:101EA0003BC0332339F1333091F038F43130A9F0AD
:101EB000323001F584B58F7D12C0373091F0383063
:101EC000A1F03430B9F4809180008F7D03C08091FF
:101ED00080008F77809380000DC084B58F7784BD9C
:101EE00009C08091B0008F7703C08091B0008F7DD2
:101EF0008093B000F0E0EE0FFF1FEF56FF4FA5916B
:101F0000B4918FB7F894EC91611103C020952E2302
:101F100001C02E2B2C938FBF0895CF93DF9390E0B9
:101F2000FC01E155FF4F2491FC01E556FF4F8491E0
:101F3000882361F190E0880F991FFC01E957FF4F5A
:101F4000C591D491FC01EF56FF4FA591B491611159
:101F500009C09FB7F8948881209582238883EC91EB
:101F60002E230BC0623061F49FB7F8943881822F22
:101F7000809583238883EC912E2B2C939FBF06C0E2
:101F80008FB7F894E8812E2B28838FBFDF91CF91F4
:101F900008951F93CF93DF93182FEB0161E00E9408
:101FA0008D0F209711F460E004C0CF3FD10539F4C4
:101FB00061E0812FDF91CF911F910C94410FE12FB0
:101FC000F0E0ED53FF4FE491E330F9F048F4E130F5
:101FD000B9F0E230A1F584B5806284BDC8BD34C0DB
:101FE000E730E9F0E83019F1E43049F580918000FC
:101FF000806280938000D0938B00C0938A0024C0BD
:1020000084B5806884BDC7BD1FC080918000806892
:1020100080938000D0938900C093880015C0809180
:10202000B00080688093B000C093B3000DC0809171
:10203000B00080628093B000C093B40005C0C03887
:10204000D1050CF0B5CFAFCFDF91CF911F9108959F
:102050008F929F92AF92BF92CF92DF92EF92FF92B8
:102060006B017C010E94A60D4B015C01C114D104DF
:10207000E104F104F1F00E94A60DDC01CB01881906
:102080009909AA09BB09883E9340A105B10570F3DF
:1020900021E0C21AD108E108F10888EE880E83E039
:1020A000981EA11CB11CC114D104E104F10419F75C
:1020B000DDCFFF90EF90DF90CF90BF90AF909F90DB
:1020C0008F9008951F920F920FB60F9211242F93A5
:1020D0003F938F939F93AF93BF9380910806909106
:1020E0000906A0910A06B0910B063091710723E012
:1020F000230F2D3720F40196A11DB11D05C026E840
:10210000230F0296A11DB11D20937107809308062D
:1021100090930906A0930A06B0930B06809172076C
:1021200090917307A0917407B09175070196A11D56
:10213000B11D8093720790937307A0937407B093B7
:102140007507BF91AF919F918F913F912F910F9004
:102150000FBE0F901F901895CF93DF93CDB7DEB7CA
:102160002F970FB6F894DEBF0FBECDBF789484B51D
:10217000826084BD84B5816084BD85B5826085BD83
:1021800085B5816085BD80916E00816080936E0011
:102190001092810080918100826080938100809103
:1021A00081008160809381008091800081608093B4
:1021B00080008091B10084608093B1008091B00074
:1021C00081608093B00080917A00846080937A006F
:1021D00080917A00826080937A0080917A00816099
:1021E00080937A0080917A00806880937A001092C0
:1021F000C100E0916706F091680682E08083E0917B
:102200006306F09164061082E0916506F09166061F
:1022100083E3808310926F06E0916B06F0916C0669
:1022200086E08083E0916906F0916A068081806192
:102230008083E0916906F0916A06808188608083DE
:10224000E0916906F0916A06808180688083E09160
:102250006906F0916A0680818F7D808320E044E0EA
:1022600064E188E597E00E94670300E010E0809158
:10227000560790915707081719073CF421E04CE0E6
:10228000B80180E097E00E94A8036AE070E0C8010E
:102290000E940A0B8091560790915707081719075B
:1022A0002CF4B80180E097E00E942F040F5F1F4FCD
:1022B00004301105E1F661E089E00E948D0F61E0D4
:1022C0008AE00E948D0F61E083E00E948D0F60E044
:1022D00080E00E948D0F239A2B98529839983A9853
:1022E0003B985A9A88B18E6088B989B18093010170
:1022F00086B18093000180916800846080936800BB
:102300008091680082608093680080916D00846095
:1023100080936D0080916C008E6080936C00789447
:102320001092C6051092C50583E090E09093C80511
:102330008093C70586E090E09093CA058093C90515
:102340000E94470A40E050E063E088E597E00E9481
:10235000CB0D61E088E597E00E946C0E62E088E5B5
:1023600097E00E945F018BE39FE10197F1F760E046
:1023700080E00E94E60B0E944A0660E080E00E9436
:10238000E60B8FE694E00E94D40B61E080E00E94AF
:10239000E60B0E944A0661E080E00E94E60B80E8BE
:1023A00094E00E94D40B93E0C92ED12C00E010E001
:1023B000E12CF12CF701E65CFD4F4081B701C8012B
:1023C0000E94B40B2FEFE21AF20A38E0E316F10490
:1023D00089F76AEF70E080E090E00E942810E12C1D
:1023E000F12CF701EE5BFD4F4081B701C8010E945F
:1023F000B40B8FEFE81AF80A98E0E916F10489F7B0
:102400006AEF70E080E090E00E9428100F5F1F4F9D
:102410000330110569F6A1E0CA1AD10839F68AE03D
:10242000E8E9F1E0DE01119601900D928A95E1F75D
:10243000FE0131967F0100E010E0DD24D394A4E09A
:10244000CA2EB5E0BB2E82E0A82E0F5F1F4F0330CF
:10245000110509F124F40230110591F006C0043091
:102460001105E1F00530110521F140E050E060E098
:1024700070E08FEF90E00E94D907D092020123C054
:1024800040E050E06FEF70E080E090E00E94D907FC
:10249000A092020118C00E94FB0715C04FEF50E048
:1024A00060E070E08AEA90E00E94D907C0920201E1
:1024B0000AC04FEF50E06FEF70E08FEF90E00E94A6
:1024C000D907B0920201D7016D917D917D01072E50
:1024D000000C880B990B611571058105910539F484
:1024E00064EF71E080E090E00E94281004C044EFA7
:1024F00051E00E941E0B64E670E080E090E00E94D4
:1025000028100530110509F0A0CF0E94EF0788E3DD
:1025100090E00E94EC1D6F3F7F4F8F4F9F4F49F41B
:1025200040E050E0BA0188E390E00E94F81D0E946C
:10253000520780E090E00E94EC1D6093910570933B
:102540009205809393059093940584E090E00E9417
:10255000EC1D60938D0570938E0580938F0590938D
:10256000900588E090E00E94EC1D609389057093CF
:102570008A0580938B0590938C0582E190E00E9400
:10258000F21DA0E0B0E08093850590938605A093AE
:102590008705B093880586E190E00E94F21D909334
:1025A00084058093830588E190E00E94F21DA0E0FD
:1025B000B0E080937F0590938005A0938105B09350
:1025C000820582E290E00E94F21D90937E05809346
:1025D0007D0584E290E00E94F21D90937C0580933B
:1025E0007B0584E390E00E94EC1D60936505709389
:1025F0006605809367059093680582E490E00E94E9
:10260000EC1D6093990570939A0580939B059093B8
:102610009C0586E490E00E94EC1D7093BC056093DD
:10262000BB050E945A0410926A0510926905109227
:102630003406109256060E94490380E28093B80047
:102640008091C30581608093C30582E08093C405B7
:102650008091990590919A05A0919B05B0919C0558
:102660008093950590939605A0939705B093980550
:102670000E94070882E2ECE6F1E0A6EEB5E00190E8
:102680000D928A95E1F786E090E090936B0180933C
:102690006A0180E480937C0080917A00806480935A
:1026A0007A0080917A0086FDFCCF6091780080915D
:1026B000790070E0782B072E000C880B990B6115C0
:1026C00071058105910511F00E94491CF9E14F2E19
:1026D000512C612C712C1E01EBE02E0E311C2E862C
:1026E0003F868091C405882309F4BBC28091C4054C
:1026F000813009F0B6C08091C30582608093C30524
:102700008091C30582FF0E94470A0E94AC071B8686
:102710001C861D869E012F5F3F4F790100E010E06F
:102720008091C30582FD05C061E070E0C8010E9490
:102730000A0B0E94441CA30192010E94231E660FF3
:10274000660F660FD7016C93C801880F991FFC01B3
:10275000EB53FA4F6F01F60120813181D7018C9143
:1027600090E08217930761F40E94441CA301920138
:102770000E94231E660F660F660FD7016C93EBCF86
:102780000F5F1F4FBFEFEB1AFB0A0330110541F635
:10279000EE85FF8580E09F01221933092330310542
:1027A0002CF491919130B9F78F5FF5CF833009F414
:1027B0005BC2CE0101964C0100E010E07801EE0C06
:1027C000FF1CF701EB53FA4F80819181893C910501
:1027D00011F411821082F701EB53FA4F20813181FD
:1027E000D4018D914D0190E001962817390721F110
:1027F0008091C30582FF09C0F701EB53FA4F808136
:10280000918101969183808325C0C12CD12C5F01D9
:10281000D501ED91FC91EE55FE4FEC0DFD1D408173
:10282000B601C8010E94B40BBFEFCB1ADB0AE8E087
:10283000CE16D10469F7E0CF8091C30582FD05C0B3
:102840006AE070E0C8010E940A0BF101E00FF11F7D
:1028500021E020830F5F1F4F0330110509F0AECF39
:1028600097CF8091C4058230E1F41092C405109294
:10287000C2051092C10580E090E00E94200C80917A
:10288000E4059091E505019711F40E94D00680912E
:10289000E4059091E505049709F0E3C10E944E0616
:1028A000E0C18091C405833009F0D7C08091C30591
:1028B00082FD19C04FEF50E060E070E08AEA90E0DE
:1028C0000E94D90784E080930201809169018823E6
:1028D00041F02B9A64E670E080E090E00E942810BE
:1028E0002B980E94EF078091E4059091E5050097F1
:1028F00019F58091C1059091C205009721F48AE0F5
:102900008093C405AEC18130910511F48BE0F8CFFE
:102910008230910511F48CE0F3CF8330910511F4EE
:102920008DE0EECF8430910511F48EE0E9CF05976C
:1029300009F079C08FE0E4CF8130910561F5809195
:10294000C1059091C205009761F48091BD059091F9
:10295000BE05A091BF05B091C0050596A11DB11D92
:102960000FC08130910509F061C08091BD05909143
:10297000BE05A091BF05B091C0050597A109B10999
:102980008093BD059093BE05A093BF05B093C0058D
:102990000E94D00648C08230910529F58091C1057A
:1029A0009091C2050097A9F48091C30582FF0BC0E6
:1029B0008091C3058B7F8093C3058091C30581609F
:1029C0008093C30530C08091C30584608093C305A4
:1029D00076C08130910551F59091690181E0892798
:1029E0008093690120C08330910519F1049709F0A3
:1029F00038C18091C1059091C205009731F4809152
:102A0000BB059091BC05019608C08130910571F419
:102A10008091BB059091BC0501979093BC05809374
:102A2000BB050E944E061092C4051BC1029709F017
:102A300018C182E2ECE6F1E0A6EEB5E001900D925D
:102A40008A95E1F786E090E090936B0180936A01AC
:102A50001092E5051092E4054FC08091C4058430C2
:102A600071F40E94470A1092C4058091C1059091AB
:102A7000C205181619060CF002CF019717C08091F5
:102A8000C4058530C1F40E94470A1092C4058091A4
:102A9000C1059091C20520916A0130916B012150CE
:102AA0003109821793070CF0EACE01969093C20584
:102AB0008093C105E2CE8091C4058A3011F481E093
:102AC0001FCF8091C4058B30C9F40E94470A82E26F
:102AD000E7E4F1E0A6EEB5E001900D928A95E1F70A
:102AE00083E090E090936B0180936A0181E090E035
:102AF0009093E5058093E40582E002CF8091C405C0
:102B00008F30A1F40E94470A82E2E5E2F1E0A6EEEE
:102B1000B5E001900D928A95E1F783E090E0909303
:102B20006B0180936A0184E090E0E2CF8091C4055C
:102B30008C30C1F40E94470A82E2E3E0F1E0A6EEA5
:102B4000B5E001900D928A95E1F783E090E09093D3
:102B50006B0180936A0182E090E09093E505809399
:102B6000E405CECE8091C4058D30E1F40E94470A81
:102B70000E945A048EE1EDE9F5E0A6EEB5E0019081
:102B80000D928A95E1F78FE090E090936B0180932E
:102B90006A0183E090E09093E5058093E4050E944C
:102BA000640AAACF8091C4058E3009F05AC00E94F1
:102BB000470A0E94470A0E945207109291051092FC
:102BC0009205109293051092940510928D05109223
:102BD0008E0510928F051092900510928905109223
:102BE0008A0510928B0510928C0510928505109223
:102BF0008605109287051092880510928405109220
:102C0000830510927F051092800510928105109225
:102C1000820510927E0510927D0510927C0510921F
:102C20007B0584EF91E0A0E0B0E08093990590935C
:102C30009A05A0939B05B0939C051092BC05109239
:102C4000BB058093950590939605A0939705B09347
:102C500098050E94AC070E945A041092C4050E9475
:102C6000470A0E949C0D3DCD20916B0580E090E0CD
:102C7000FC01EE0FFF1FEB53FA4F408151814139A8
:102C8000510509F42F5F01968330910589F7209350
:102C90006B0510917A0580E090E020E030E0FC01C7
:102CA000EE0FFF1FEB53FA4F60817181D901AA0F1C
:102CB000BB1FAB53BA4F4D915C91615071094150AC
:102CC00051096417750709F41F5F2F5F3F4F2330C9
:102CD000310551F7019683309105F9F6193069F401
:102CE00083E080937A058091740590917505019633
:102CF000909375058093740521C01530B9F482E076
:102D000080937A058091760590917705A09178055A
:102D1000B09179050196A11DB11D80937605909320
:102D20007705A0937805B093790508C0133019F49E
:102D300010927A0503C08FEF80937A0580916B051E
:102D4000833051F480916C0590916D0501969093BC
:102D50006D0580936C0521C0823051F480916E0521
:102D600090916F05019690936F0580936E0515C045
:102D7000813099F48091700590917105A091720550
:102D8000B09173050196A11DB11D809370059093BC
:102D90007105A0937205B093730500916C051091B5
:102DA0006D050115110509F443C0109275051092C7
:102DB000740510926F0510926E05109270051092B6
:102DC000710510927205109273051092760510929B
:102DD0007705109278051092790510927A05609126
:102DE000BD057091BE058091BF059091C0050E9400
:102DF000CD1C6B017C016091BB057091BC05072E59
:102E0000000C880B990B0E94CF1C20E030E048ECAE
:102E100052E40E942A1F20E030E046E154E40E9480
:102E20002E1D9B01AC0160E070E086E194E4A3C03C
:102E30008091740590917505892B09F43FC010921B
:102E40006F0510926E051092700510927105109228
:102E50007205109273051092760510927705109204
:102E600078051092790510927A056091BD057091F0
:102E7000BE058091BF059091C0050E94CD1C6B01DD
:102E80007C016091BB057091BC05072E000C880B7E
:102E9000990B0E94CF1C20E030E048EC52E40E94E5
:102EA0002A1F20E030E044EF52E40E942E1D9B01D7
:102EB000AC0160E070E084EF92E45DC080916E054B
:102EC00090916F05009749F010927005109271056E
:102ED00010927205109273050CC0409170055091CC
:102EE00071056091720570917305452B462B472B38
:102EF00049F010927605109277051092780510929D
:102F000079050CC040917605509177056091780560
:102F100070917905452B462B472B11F010927A05BD
:102F2000892B09F4F3C26091BD057091BE058091B3
:102F3000BF059091C0050E94CD1C6B017C01609182
:102F4000BB057091BC05072E000C880B990B0E94E5
:102F5000CF1C20E030E048EC52E40E942A1F20E021
:102F600030E048E452E40E942E1D9B01AC0160E079
:102F700070E088E492E40E94BD1E9B01AC01C70191
:102F8000B6010E942E1D4B015C0120E030E0A9013A
:102F90000E94D21F87FF04C00CC0812C912C5401C9
:102FA00020E030E040E05FE3C501B4010E94BE1EB6
:102FB00008C020E030E040E05FE3C501B4010E94BA
:102FC000BD1E0E949C1F6B017C010E94CF1C9B01B7
:102FD000AC01C501B4010E94BD1E2091DC053091F9
:102FE000DD054091DE055091DF050E94BE1E4B01BC
:102FF0005C0120E030E040E85FE30E94D21F87FFE1
:1030000013C020E030E040E85FEBC501B4010E944E
:10301000C81C18164CF48092DC059092DD05A09235
:10302000DE05B092DF0530C020E030E0A901C50127
:10303000B4010E94D21F20E030E040E05FE387FD52
:1030400005C0C501B4010E94BE1E04C0C501B40183
:103050000E94BD1E0E949C1F072E000C880B990B1E
:10306000C60ED71EE81EF91E0E94CF1C9B01AC01A4
:10307000C501B4010E94BD1E6093DC057093DD059F
:103080008093DE059093DF058091BD059091BE058C
:10309000A091BF05B091C005C81AD90AEA0AFB0A77
:1030A000409191055091920560919305709194051E
:1030B0004C0D5D1D6E1D7F1D409391055093920533
:1030C000609393057093940540918D0550918E0502
:1030D00060918F0570919005840F951FA61FB71FF3
:1030E00080938D0590938E05A0938F05B0939005E6
:1030F0008091990590919A05A0919B05B0919C05AE
:103100008093950590939605A0939705B0939805A5
:10311000C80ED91EEA1EFB1EC0929905D0929A05D0
:10312000E0929B05F0929C058091890590918A051B
:10313000A0918B05B0918C050196A11DB11D8093C6
:10314000890590938A05A0938B05B0938C054091D7
:10315000850550918605609187057091880580915D
:10316000760590917705A0917805B0917905840F47
:10317000951FA61FB71F8093850590938605A09382
:103180008705B0938805209183053091840580914F
:10319000740590917505820F931F90938405809319
:1031A000830540917F055091800560918105709164
:1031B00082058091700590917105A0917205B09182
:1031C0007305840F951FA61FB71F80937F059093EB
:1031D0008005A0938105B093820520917D053091F3
:1031E0007E0580916E0590916F05820F931F9093DD
:1031F0007E0580937D0580917B0590917C05080F6D
:10320000191F10937C0500937B058091C30582FDF7
:1032100094C00E94D9080E94070800917A050023F3
:1032200009F488C0E12CF12C10E001501109DD24D3
:10323000D394E016F1060CF07DC00E94FB078FE1ED
:10324000882E912CA12CB12CC40164ED74E00E9455
:10325000D71F892BA9F18091690181112AC0A5E0AE
:103260008A0E911CA11CB11CB5E78B16B3E19B061D
:10327000A104B10449F70E94EF076AE070E080E022
:1032800090E00E940A0B6AE070E081E090E00E940A
:103290000A0B6AE070E082E090E00E940A0B68EEA0
:1032A00073E080E090E00E9428109FEFE91AF90A8D
:1032B000C0CF41E050E0C501B4010E941E0BCFCF4A
:1032C000809102018130A1F461E070E080E090E043
:1032D0000E940A0B61E070E081E090E00E940A0B1E
:1032E00061E070E082E090E00E940A0B0E94FB0720
:1032F00080910201833009F0AECF6AE070E080E097
:1033000090E00E940A0B6AE070E081E090E00E9489
:103310000A0B6AE070E082E090E00E940A0B40E055
:1033200050E060E070E08FEF90E00E94D907D0920B
:10333000020191CF0E945A04D2C06091E0057091C1
:10334000E1058091E2059091E3058B019C010F5FFF
:103350001F4F2F4F3F4F0093E0051093E10520933F
:10336000E2053093E30520E137E240E050E00E94BF
:103370008C1E672B682B692B09F0B1C00E94D908FD
:103380000E9407080E945A040E94640AC090DC054B
:10339000D090DD05E090DE05F090DF0566E874E092
:1033A000CE0101960E94AE0ECE0101960E94920AB5
:1033B00089819A810E949A201A8219821C821B821A
:1033C0001E821D8264E870E0CE0101960E94860E86
:1033D000CE0101960E94920A89819A810E949A20C8
:1033E00020E030E0A901C701B6010E94C81C87FF98
:1033F0000AC08DE28093CB05F7FAF094F7F8F094C9
:103400000CEC15E002C00BEC15E0C701B6010E9400
:10341000A31FB62EA72E982E892E0E94CD1C9B018D
:10342000AC01C701B6010E94BD1E20E034E244E7B2
:1034300059E40E942E1D0E94A31F9F938F937F9398
:103440006F938F929F92AF92BF9281E994E09F9386
:103450008F931F930F930E941C226BEC75E0CE019B
:1034600001960E94AE0ECE0101960E949B0A8981B0
:103470009A810E949A200FB6F894DEBF0FBECDBF8E
:1034800001E810E0F801649161111AC08091E00533
:103490009091E105A091E205B091E305803492445A
:1034A000AF40B105E0F08091C3058B7F8093C305E9
:1034B0008091C30581608093C3051092C4050FC03D
:1034C000E0915706F09158060190F081E02D87E5D4
:1034D00096E009950F5F1F4F892BA1F6D7CF8091FA
:1034E000C3058D7F8093C3058091C30582FF06C00D
:1034F0008091C405833009F0E2CAB3CB1092C405B1
:103500008091C30581608093C305ABCB809170052A
:1035100090917105A0917205B0917305892B8A2B4A
:103520008B2B49F16091BD057091BE058091BF055F
:103530009091C0050E94CD1C6B017C016091BB0580
:103540007091BC05072E000C880B990B0E94CF1CB4
:1035500020E030E048EC52E40E942A1F20E030E0F6
:1035600040E450E40E942E1D9B01AC0160E070E03D
:1035700080E490E400CD8091760590917705A0914C
:103580007805B0917905892B8A2B8B2B09F405CD11
:103590006091BD057091BE058091BF059091C005F9
:1035A0000E94CD1C6B017C016091BB057091BC0534
:1035B000072E000C880B990B0E94CF1C20E030E0F6
:1035C00048EC52E40E942A1F9B01AC010E94BE1EDF
:1035D0009B01AC0160E070E080E090E4CCCCCF9344
:1035E000DF9310925A061092590688EE93E0A0E0FD
:1035F000B0E080935B0690935C06A0935D06B09369
:103600005E0620E732E0309358062093570625ECFB
:1036100030E0309364062093630624EC30E030936E
:1036200066062093650620EC30E030936806209310
:10363000670621EC30E030936A062093690622EC9D
:1036400030E030936C0620936B0626EC30E030932C
:103650006E0620936D0610927006109271061092FD
:103660007206109273061092F7061092F606809377
:10367000F8069093F906A093FA06B093FB0682E849
:1036800092E09093F5068093F40610925B071092F7
:103690005A0784E992E09093590780935807109253
:1036A00068078FEF8093670710926607109269078B
:1036B0008FE380936307109264071092650710925E
:1036C00062071092610784E080936A0782E080932A
:1036D0006B0781E080936C0780E180936D0780E247
:1036E00080936E0780E480936F0780E88093700773
:1036F000C8E0D0E0D0935107C09350078DE090E030
:1037000090935307809352078CE090E09093550775
:103710008093540784E090E0909357078093560776
:1037200061E088E00E948D0F61E0809152070E9465
:103730008D0F61E0809154070E948D0F61E08091B0
:1037400054070E94410FD0935107C0935007E0E106
:10375000F7E0119287E0E035F807D9F7C0E0D0E054
:103760008091560790915707C817D907E4F520E0D4
:103770004FE0BE0180E097E00E94A803D7FD0EC095
:103780008091560790915707C817D9073CF427E056
:103790004BE0BE0180E097E00E94A80320E049E0F2
:1037A000BE0180E097E00E94A803D7FD1AC0809177
:1037B000560790915707C817D9072CF4BE0180E02F
:1037C00097E00E942F048091560790915707C817E1
:1037D000D9073CF420E04CE0BE0180E097E00E9475
:1037E000A8032196BDCFDF91CF9108958F929F922C
:1037F000AF92BF92CF92DF92EF92FF92CF93DF937F
:10380000EC01688179818A819B816115710581054F
:10381000910521F464E279ED8BE597E02DE133EF3A
:1038200041E050E00E94231E49015A019B01AC0176
:10383000A7EAB1E40E94421E6B017C01ACEEB4EF3A
:10384000A50194010E94501EDC01CB018C0D9D1D31
:10385000AE1DBF1DB7FF03C00197A109B048888303
:103860009983AA83BB83BC01CD019F77DF91CF9160
:10387000FF90EF90DF90CF90BF90AF909F908F9090
:1038800008950E94F61B08958EE891E00E94F61BB1
:10389000089560938E0170938F01809390019093AF
:1038A00091010895FB01DC0105900D920020E1F7E4
:1038B0000895FC0105900020E9F7809590958E0F02
:1038C0009F1F0895BB274A3031F4992322F4BDE2AB
:1038D000909581959F4F0C949F1CBB272A3051F4E3
:1038E000992342F4BDE290958095709561957F4F44
:1038F0008F4F9F4F0C947D1CBB27FA01A62F621798
:10390000710581059105330B30FB66F0AA27660F20
:10391000771F881F991FAA1FA21710F0A21B63957B
:103920003850A9F7A05DAA3308F0A95DA19336F736
:10393000B111B1931082CA010C94B81CBB27FB01D2
:103940005527AA27880F991FAA1FA41710F0A41B98
:1039500083955051B9F7A05DAA3308F0A95DA193F2
:10396000009779F7B111B1931192CB010C94B81C67
:10397000DC01FC01672F71917723E1F7329704C0D6
:103980007C916D9370836291AE17BF07C8F3089561
:103990000E940A1D08F481E00895E89409C097FB8D
:1039A0003EF490958095709561957F4F8F4F9F4F16
:1039B0009923A9F0F92F96E9BB279395F69587955A
:1039C00077956795B795F111F8CFFAF4BB0F11F41D
:1039D00060FF1BC06F5F7F4F8F4F9F4F16C08823C4
:1039E00011F096E911C0772321F09EE8872F762FFA
:1039F00005C0662371F096E8862F70E060E02AF03B
:103A00009A95660F771F881FDAF7880F9695879526
:103A100097F90895990F0008550FAA0BE0E8FEEFFB
:103A200016161706E807F907C0F012161306E40782
:103A3000F50798F0621B730B840B950B39F40A267B
:103A400061F0232B242B252B21F408950A2609F459
:103A5000A140A6958FEF811D811D08950E94411DF3
:103A60000C94B21D0E94A41D38F00E94AB1D20F0E2
:103A7000952311F00C949B1D0C94A11D11240C9402
:103A8000E61D0E94C31D70F3959FC1F3950F50E092
:103A9000551F629FF001729FBB27F00DB11D639F00
:103AA000AA27F00DB11DAA1F649F6627B00DA11DA6
:103AB000661F829F2227B00DA11D621F739FB00D4C
:103AC000A11D621F839FA00D611D221F749F3327BC
:103AD000A00D611D231F849F600D211D822F762F55
:103AE0006A2F11249F5750409AF0F1F088234AF032
:103AF000EE0FFF1FBB1F661F771F881F915050409E
:103B0000A9F79E3F510580F00C949B1D0C94E61D77
:103B10005F3FE4F3983ED4F3869577956795B79524
:103B2000F795E7959F5FC1F7FE2B880F911D96953E
:103B3000879597F9089597F99F6780E870E060E0AE
:103B400008959FEF80EC089500240A941616170636
:103B500018060906089500240A941216130614067E
:103B600005060895092E0394000C11F4882352F0E1
:103B7000BB0F40F4BF2B11F460FF04C06F5F7F4F99
:103B80008F4F9F4F089557FD9058440F551F59F080
:103B90005F3F71F04795880F97FB991F61F09F3F3A
:103BA00079F087950895121613061406551FF2CF63
:103BB0004695F1DF08C0161617061806991FF1CFB3
:103BC00086957105610508940895E894BB276627DA
:103BD0007727CB0197F90895A6E1B0E044E050E0E3
:103BE0000C94071EA8E1B0E042E050E00C94071EE0
:103BF000242F0E94161E252F0E94161E0C94001EB4
:103C00000E94151E272F0C94161EDC01CB01FC010F
:103C1000F999FECF06C0F2BDE1BDF89A319600B425
:103C20000D9241505040B8F70895262FF999FECFD4
:103C30001FBA92BD81BD20BD0FB6F894FA9AF99AC9
:103C40000FBE01960895052E97FB1EF400940E9466
:103C50003A1E57FD07D00E948C1E07FC03D04EF47D
:103C60000C943A1E50954095309521953F4F4F4FFB
:103C70005F4F089590958095709561957F4F8F4F18
:103C80009F4F08950E94AE1EA59F900DB49F900D6A
:103C9000A49F800D911D11240895B7FF0C94421E1E
:103CA0000E94421E821B930B08952F923F924F92C7
:103CB0005F926F927F928F929F92AF92BF92CF92BC
:103CC000DF92EF92FF920F931F93CF93DF93CDB7C5
:103CD000DEB7CA1BDB0B0FB6F894DEBF0FBECDBF3D
:103CE00009942A88398848885F846E847D848C840E
:103CF0009B84AA84B984C884DF80EE80FD800C8117
:103D00001B81AA81B981CE0FD11D0FB6F894DEBFF9
:103D10000FBECDBFED010895A1E21A2EAA1BBB1B59
:103D2000FD010DC0AA1FBB1FEE1FFF1FA217B30787
:103D3000E407F50720F0A21BB30BE40BF50B661F9D
:103D4000771F881F991F1A9469F760957095809561
:103D500090959B01AC01BD01CF010895A29FB001D8
:103D6000B39FC001A39F700D811D1124911DB29FAF
:103D7000700D811D1124911D08955058BB27AA274D
:103D80000E94D51E0C94B21D0E94A41D38F00E9402
:103D9000AB1D20F039F49F3F19F426F40C94A11DBB
:103DA0000EF4E095E7FB0C949B1DE92F0E94C31DC8
:103DB00058F3BA17620773078407950720F079F460
:103DC000A6F50C94E51D0EF4E0950B2EBA2FA02D50
:103DD0000B01B90190010C01CA01A0011124FF27B8
:103DE000591B99F0593F50F4503E68F11A16F040B3
:103DF000A22F232F342F4427585FF3CF46953795B2
:103E00002795A795F0405395C9F77EF41F16BA0B76
:103E1000620B730B840BBAF09150A1F0FF0FBB1F24
:103E2000661F771F881FC2F70EC0BA0F621F731F6D
:103E3000841F48F4879577956795B795F7959E3FCA
:103E400008F0B0CF9395880F08F09927EE0F97955B
:103E5000879508950E943E1F0C94B21D0E94AB1DD1
:103E600058F00E94A41D40F029F45F3F29F00C9403
:103E70009B1D51110C94E61D0C94A11D0E94C31DA5
:103E800068F39923B1F3552391F3951B550BBB2789
:103E9000AA2762177307840738F09F5F5F4F220FCE
:103EA000331F441FAA1FA9F335D00E2E3AF0E0E8C5
:103EB00032D091505040E695001CCAF72BD0FE2F0F
:103EC00029D0660F771F881FBB1F261737074807A3
:103ED000AB07B0E809F0BB0B802DBF01FF2793585B
:103EE0005F4F3AF09E3F510578F00C949B1D0C9467
:103EF000E61D5F3FE4F3983ED4F38695779567958A
:103F0000B795F7959F5FC9F7880F911D969587958F
:103F100097F90895E1E0660F771F881FBB1F6217AE
:103F200073078407BA0720F0621B730B840BBA0B6C
:103F3000EE1F88F7E09508950E94A31F6894B111C1
:103F40000C94E61D08950E94CB1D88F09F5798F0B1
:103F5000B92F9927B751B0F0E1F0660F771F881F8E
:103F6000991F1AF0BA95C9F714C0B13091F00E94A8
:103F7000E51DB1E008950C94E51D672F782F882783
:103F8000B85F39F0B93FCCF3869577956795B395CF
:103F9000D9F73EF490958095709561957F4F8F4F3E
:103FA0009F4F08950E940A1D08F48FEF089597FB14
:103FB000072E16F4009407D077FD09D00E94EB1F5E
:103FC00007FC05D03EF4909581959F4F089570951C
:103FD00061957F4F0895AA1BBB1B51E107C0AA1F23
:103FE000BB1FA617B70710F0A61BB70B881F991F9A
:103FF0005A95A9F780959095BC01CD010895EE0FD3
:10400000FF1F0590F491E02D0994CF93DF93823048
:10401000910510F482E090E0E0917807F091790743
:1040200020E030E0C0E0D0E0309711F140815181D4
:1040300048175907C0F04817590761F482819381E6
:10404000209719F09B838A832BC0909379078093E4
:10405000780726C02115310519F04217530718F4C7
:104060009A01BE01DF01EF010280F381E02DDCCF78
:104070002115310509F1281B390B2430310590F445
:1040800012968D919C9113976115710521F0FB019A
:104090009383828304C09093790780937807FD010E
:1040A000329644C0FD01E20FF31F81939193225099
:1040B00031092D933C933AC02091760730917707D0
:1040C000232B41F42091940130919501309377078F
:1040D00020937607209192013091930121153105AB
:1040E00041F42DB73EB74091960150919701241BA2
:1040F000350BE0917607F0917707E217F307A0F40C
:104100002E1B3F0B2817390778F0AC014E5F5F4F2D
:104110002417350748F04E0F5F1F509377074093E1
:1041200076078193919302C0E0E0F0E0CF01DF9148
:10413000CF9108950F931F93CF93DF93009709F4C6
:104140008CC0FC0132971382128200917807109183
:1041500079070115110581F420813181820F931FA8
:1041600020917607309177072817390779F5F09372
:104170007707E093760771C0D80140E050E0AE17B2
:10418000BF0750F412962D913C911397AD01211564
:10419000310509F1D901F3CF9D01DA01338322837F
:1041A00060817181860F971F8217930769F4EC0174
:1041B00028813981260F371F2E5F3F4F318320839F
:1041C0008A819B8193838283452B29F4F09379071D
:1041D000E093780742C01396FC93EE931297ED019B
:1041E000499159919E01240F351FE217F30771F48D
:1041F00080819181840F951F029611969C938E93D6
:104200008281938113969C938E931297E0E0F0E065
:10421000D80112968D919C911397009719F0F8018F
:104220008C01F6CF8D919C9198012E5F3F4F820FAC
:10423000931F20917607309177072817390769F483
:10424000309729F4109279071092780702C01382F0
:1042500012821093770700937607DF91CF911F9119
:104260000F910895A0E0B0E0E8E3F1E20C94591E4C
:10427000EC01009721F4CB010E940520B8C0FC019D
:10428000E60FF71F9C0122503109E217F30708F4EB
:10429000ACC0D9010D911C91119706171707B0F00A
:1042A0000530110508F49FC0C801049786179707C9
:1042B00008F499C002501109061B170B01931193C2
:1042C0006D937C93CF010E949A208DC05B01A01A50
:1042D000B10A4C01800E911EA0917807B091790728
:1042E00040E050E0E12CF12C109709F44AC0A815E9
:1042F000B905D1F56D907C901197630182E0C80EED
:10430000D11CCA14DB0480F1A3014A195B096A01BC
:1043100082E0C80ED11C1296BC9012971396AC91F5
:10432000B5E0CB16D10440F0B282A3835183408321
:10433000D9016D937C930AC00E5F1F4FC301800F9C
:10434000911FF90191838083EB2DFA2FE114F10481
:1043500031F0D7011396FC93EE93129744C0F0937B
:104360007907E09378073FC08D919C91119748178A
:10437000590708F4AC017D0112960D90BC91A02D57
:10438000B3CF809176079091770788159905E1F46E
:1043900046175707C8F480919201909193010097B6
:1043A00041F48DB79EB74091960150919701841BBF
:1043B000950BE817F907C8F4F0937707E0937607B1
:1043C000F901718360830FC0CB010E9405207C013D
:1043D000009759F0A801BE010E940122CE010E945F
:1043E0009A20C70104C0CE0102C080E090E0CDB7A2
:1043F000DEB7EEE00C94751E81E090E0F8940C942A
:10440000BD24FB01DC0102C001900D9241505040DF
:10441000D8F70895FB01DC010D900020E9F7119712
:1044200001900D920020E1F70895FB01DC0101905D
:104430000D920020E1F70895AEE0B0E0E2E2F2E292
:104440000C94631E0D891E8986E08C831A83098370
:104450008FEF9FE79E838D83AE01475E5F4F6F892D
:10446000788DCE0101960E943F222F813885F80178
:10447000E20FF31F10822E96E4E00C947F1EACE056
:10448000B0E0E5E4F2E20C94551E7C016B018A0178
:10449000FC0117821682838181FFBDC1CE01019686
:1044A0004C01F7019381F60193FD859193FF819172
:1044B0006F01882309F4ABC1853239F493FD8591EE
:1044C00093FF81916F01853229F4B70190E00E943A
:1044D0002724E7CF512C312C20E02032A0F48B325E
:1044E00069F030F4803259F0833269F420612CC0D5
:1044F0008D3239F0803339F4216026C02260246087
:1045000023C0286021C027FD27C030ED380F3A3086
:1045100078F426FF06C0FAE05F9E300D1124532E7A
:1045200013C08AE0389E300D1124332E20620CC057
:104530008E3221F426FD6BC1206406C08C3611F446
:10454000206802C0883641F4F60193FD859193FFFF
:1045500081916F018111C1CF982F9F7D9554933028
:1045600028F40C5F1F4FFFE3F9830DC0833631F051
:10457000833771F0833509F05BC022C0F801808178
:1045800089830E5F1F4F44244394512C540115C05E
:104590003801F2E06F0E711CF801A080B18026FF97
:1045A00003C0652D70E002C06FEF7FEFC5012C875F
:1045B0000E941C242C0183012C852F77222E17C0EA
:1045C0003801F2E06F0E711CF801A080B18026FF67
:1045D00003C0652D70E002C06FEF7FEFC5012C872F
:1045E0000E9411242C012C852068222E830123FC9B
:1045F0001BC0832D90E048165906B0F4B70180E245
:1046000090E00E9427243A94F4CFF50127FC85918D
:1046100027FE81915F01B70190E00E9427243110AD
:104620003A94F1E04F1A51084114510471F7E5C072
:10463000843611F0893639F5F80127FF07C060810B
:104640007181828193810C5F1F4F08C060817181ED
:10465000072E000C880B990B0E5F1F4F2F76722EC2
:1046600097FF09C090958095709561957F4F8F4F0A
:104670009F4F2068722E2AE030E0A4010E945F2440
:10468000A82EA81844C0853729F42F7EB22E2AE020
:1046900030E025C0F22FF97FBF2E8F36C1F018F41D
:1046A000883579F0B4C0803719F0883721F0AFC071
:1046B0002F2F2061B22EB4FE0DC08B2D8460B82E3A
:1046C00009C024FF0AC09F2F9660B92E06C028E0BB
:1046D00030E005C020E130E002C020E132E0F80126
:1046E000B7FE07C060817181828193810C5F1F4F8B
:1046F00006C06081718180E090E00E5F1F4FA401D1
:104700000E945F24A82EA818FB2DFF777F2E76FE2F
:104710000BC0372D3E7FA51450F474FE0AC072FC06
:1047200008C0372D3E7E05C0BA2C372D03C0BA2CE9
:1047300001C0B52C34FF0DC0FE01EA0DF11D8081D2
:10474000803311F4397E09C032FF06C0B394B394AC
:1047500004C0832F867809F0B39433FD13C030FF73
:1047600006C05A2CB31418F4530C5B18B32CB314B2
:1047700068F4B70180E290E03C870E942724B3945C
:104780003C85F5CFB31410F43B1801C0312C34FF35
:1047900012C0B70180E390E03C870E9427243C854B
:1047A00032FF17C031FD03C088E790E002C088E502
:1047B00090E0B7010CC0832F867859F031FF02C01A
:1047C0008BE201C080E237FD8DE2B70190E00E94EC
:1047D0002724A51438F4B70180E390E00E94272431
:1047E0005A94F7CFAA94F401EA0DF11D8081B70124
:1047F00090E00E942724A110F5CF332009F451CE78
:10480000B70180E290E00E9427243A94F6CFF701A6
:104810008681978102C08FEF9FEF2C96E2E10C9486
:10482000711EFC010590615070400110D8F7809511
:1048300090958E0F9F1F0895FC016150704001906C
:104840000110D8F7809590958E0F9F1F08950F93B4
:104850001F93CF93DF93FB01238121FD03C08FEFD3
:104860009FEF28C022FF16C04681578124813581E1
:104870004217530744F4A081B1819D012F5F3F4F40
:10488000318320838C93268137812F5F3F4F37837D
:10489000268310C0EB01092F182F0084F185E02D2D
:1048A0000995892BE1F68E819F8101969F838E83E6
:1048B000812F902FDF91CF911F910F910895FA01D1
:1048C000AA27283051F1203181F1E8946F936E7F4F
:1048D0006E5F7F4F8F4F9F4FAF4FB1E03ED0B4E040
:1048E0003CD0670F781F891F9A1FA11D680F791F81
:1048F0008A1F911DA11D6A0F711D811D911DA11D92
:1049000020D009F468943F912AE0269F11243019A1
:10491000305D3193DEF6CF010895462F4770405D3C
:104920004193B3E00FD0C9F7F6CF462F4F70405DEB
:104930004A3318F0495D31FD4052419302D0A9F746
:10494000EACFB4E0A6959795879577956795BA9540
:10495000C9F700976105710508959B01AC010A2E06
:1049600006945795479537952795BA95C9F7620FDD
:0E497000731F841F951FA01D0895F894FFCF9C
:10497E000E04019E04AA04B8045E045E045E045E86
:10498E00045E045E045E045E045E045E045E045E09
:10499E00045E045E04BE04CB0475035E045E045E16
:1049AE00045E045E045E045E045E045E045E045EE9
:1049BE00045E045E045E04D804E50475035E045EC2
:1049CE00045E045E045E045E045E045E045E045EC9
:1049DE00045E045E045E045E04010600F204F70445
:1049EE00FB0404050C0512055E045E045E045E0401
:1049FE005E045E045E045E045E045E045E040100FA
:104A0E00000000007A0780006E007B00620031001B
:104A1E004900995A3CFFFF3C5A99000000181800B3
:104A2E000000FFFF00FFFF00FFFF66FFFFFFFF7E9E
:104A3E003C180060600000060600007E7E0C1838F0
:104A4E003800183C5A381C5A3C180060601818067A
:104A5E0006002424FF2424FF2424000000FFFF006E
:104A6E0000000066660000666600FF8181F3E7C7FE
:104A7E00C7FFDBDB00DBDB00DBDB006666181866DE
:104A8E00660000FFFF0000FFFF0042247EDBFFFFF9
:104A9E00A5240024001842423C1800DBDB0000DB9A
:104AAE00DB0000003C7EAB7E3C00183C7EDBFF242E
:104ABE005AA5183C7EDBFF245A420081FFDBFF7EA5
:104ACE002442103010101010103838448204081090
:104ADE0020FEFF02041C020408E005000000000096
:104AEE00330DA00CCB0C7A0DFC0CDA0CEE0C000086
:104AFE0000002C01FC005C01D600F400E500D7009C
:104B0E00000000009700A00C5C015B016703CB0D59
:104B1E006C0E4B0E31202020202020202020202023
:104B2E002020202020200032202020202020202085
:104B3E002020202020202020200033202020202074
:104B4E002020202020202020202020200034202063
:104B5E002020202020202020202020202020200067
:104B6E003520202020202020202020202020202022
:104B7E002020003620202020202020202020202031
:104B8E002020202020003720202020202020202020
:104B9E00202020202020202000382020202020200F
:104BAE0020202020202020202020200039202020FE
:104BBE0020202020202020202020202020200031F6
:104BCE0030202020202020202020202020202020C7
:104BDE0020003131202020202020202020202020C5
:104BEE0020202020004261636B0050617965644F84
:104BFE00757420202020202020202020005761675F
:104C0E006572656420202020202020202020200096
:104C1E00506C61797320202020202020202020201D
:104C2E0020200032204D6174636820202020202037
:104C3E0020202020200033204D6174636820202026
:104C4E002020202020202020005368697020312051
:104C5E004D61746368202020202020005368697005
:104C6E002032204D617463682020202020200053C4
:104C7E006869702033204D617463682020202020E5
:104C8E002000454570726F6D2020202020202020AE
:104C9E002020202000437265646974732020202038
:104CAE002020202020202000486F6C64202020200F
:104CBE002020202020202020202000202020202006
:104CCE0020202020202020202020202020202000F6
:104CDE00486F6C643A200057616765723A20004352
:104CEE006C6F736520456E636F756E7465727300BD
:104CFE00536C6F7473006F77656445786365737377
:104D0E0000256C752E2531302E31306C75004175B5
:104D1E00746F2F4D616E75616C00546F67676C65B3
:104D2E0020536F756E6420004261636B20002B313F
:104D3E002070657263656E743A20002D31207065A7
:104D4E007263656E743A20002B3520637265646958
:104D5E0074733A20002D3520637265646974733A5A
:104D6E002000506C6179004265740053657474695B
:104D7E006E6773004D657472696373005265736577
:0E4D8E007400486F6C64000D0A002D3E00009A
:00000001FF
